{
  "_format": "hh-sol-artifact-1",
  "contractName": "ERC404Tax",
  "sourceName": "contracts/erc404/examples/ERC404Tax.sol",
  "abi": [
    {
      "inputs": [
        {
          "internalType": "string",
          "name": "name_",
          "type": "string"
        },
        {
          "internalType": "string",
          "name": "symbol_",
          "type": "string"
        },
        {
          "internalType": "uint8",
          "name": "decimals_",
          "type": "uint8"
        },
        {
          "internalType": "uint256",
          "name": "maxTotalSupplyERC721_",
          "type": "uint256"
        },
        {
          "internalType": "address",
          "name": "initialOwner_",
          "type": "address"
        },
        {
          "internalType": "address",
          "name": "initialMintRecipient_",
          "type": "address"
        },
        {
          "internalType": "address",
          "name": "uniswapV2Router_",
          "type": "address"
        },
        {
          "internalType": "uint256",
          "name": "buyFee_",
          "type": "uint256"
        },
        {
          "internalType": "uint256",
          "name": "sellFee_",
          "type": "uint256"
        }
      ],
      "stateMutability": "nonpayable",
      "type": "constructor"
    },
    {
      "inputs": [],
      "name": "AlreadyExists",
      "type": "error"
    },
    {
      "inputs": [],
      "name": "DecimalsTooLow",
      "type": "error"
    },
    {
      "inputs": [],
      "name": "InsufficientAllowance",
      "type": "error"
    },
    {
      "inputs": [],
      "name": "InvalidApproval",
      "type": "error"
    },
    {
      "inputs": [],
      "name": "InvalidExemption",
      "type": "error"
    },
    {
      "inputs": [],
      "name": "InvalidOperator",
      "type": "error"
    },
    {
      "inputs": [],
      "name": "InvalidRecipient",
      "type": "error"
    },
    {
      "inputs": [],
      "name": "InvalidSender",
      "type": "error"
    },
    {
      "inputs": [],
      "name": "InvalidSigner",
      "type": "error"
    },
    {
      "inputs": [],
      "name": "InvalidSpender",
      "type": "error"
    },
    {
      "inputs": [],
      "name": "InvalidTokenId",
      "type": "error"
    },
    {
      "inputs": [],
      "name": "MintLimitReached",
      "type": "error"
    },
    {
      "inputs": [],
      "name": "NotFound",
      "type": "error"
    },
    {
      "inputs": [
        {
          "internalType": "address",
          "name": "owner",
          "type": "address"
        }
      ],
      "name": "OwnableInvalidOwner",
      "type": "error"
    },
    {
      "inputs": [
        {
          "internalType": "address",
          "name": "account",
          "type": "address"
        }
      ],
      "name": "OwnableUnauthorizedAccount",
      "type": "error"
    },
    {
      "inputs": [],
      "name": "OwnedIndexOverflow",
      "type": "error"
    },
    {
      "inputs": [],
      "name": "PermitDeadlineExpired",
      "type": "error"
    },
    {
      "inputs": [],
      "name": "QueueEmpty",
      "type": "error"
    },
    {
      "inputs": [],
      "name": "QueueFull",
      "type": "error"
    },
    {
      "inputs": [],
      "name": "QueueOutOfBounds",
      "type": "error"
    },
    {
      "inputs": [],
      "name": "RecipientIsERC721TransferExempt",
      "type": "error"
    },
    {
      "inputs": [],
      "name": "Unauthorized",
      "type": "error"
    },
    {
      "inputs": [],
      "name": "UnsafeRecipient",
      "type": "error"
    },
    {
      "anonymous": false,
      "inputs": [
        {
          "indexed": true,
          "internalType": "address",
          "name": "owner",
          "type": "address"
        },
        {
          "indexed": true,
          "internalType": "address",
          "name": "spender",
          "type": "address"
        },
        {
          "indexed": false,
          "internalType": "uint256",
          "name": "value",
          "type": "uint256"
        }
      ],
      "name": "Approval",
      "type": "event"
    },
    {
      "anonymous": false,
      "inputs": [
        {
          "indexed": true,
          "internalType": "address",
          "name": "owner",
          "type": "address"
        },
        {
          "indexed": true,
          "internalType": "address",
          "name": "spender",
          "type": "address"
        },
        {
          "indexed": true,
          "internalType": "uint256",
          "name": "id",
          "type": "uint256"
        }
      ],
      "name": "Approval",
      "type": "event"
    },
    {
      "anonymous": false,
      "inputs": [
        {
          "indexed": true,
          "internalType": "address",
          "name": "owner",
          "type": "address"
        },
        {
          "indexed": true,
          "internalType": "address",
          "name": "operator",
          "type": "address"
        },
        {
          "indexed": false,
          "internalType": "bool",
          "name": "approved",
          "type": "bool"
        }
      ],
      "name": "ApprovalForAll",
      "type": "event"
    },
    {
      "anonymous": false,
      "inputs": [
        {
          "indexed": false,
          "internalType": "uint256",
          "name": "oldFee",
          "type": "uint256"
        },
        {
          "indexed": false,
          "internalType": "uint256",
          "name": "newFee",
          "type": "uint256"
        }
      ],
      "name": "BuyFeeUpdated",
      "type": "event"
    },
    {
      "anonymous": false,
      "inputs": [
        {
          "indexed": true,
          "internalType": "address",
          "name": "account",
          "type": "address"
        },
        {
          "indexed": false,
          "internalType": "bool",
          "name": "value",
          "type": "bool"
        }
      ],
      "name": "ERC721TransferExemptionUpdated",
      "type": "event"
    },
    {
      "anonymous": false,
      "inputs": [
        {
          "indexed": true,
          "internalType": "address",
          "name": "account",
          "type": "address"
        },
        {
          "indexed": false,
          "internalType": "bool",
          "name": "isExcluded",
          "type": "bool"
        }
      ],
      "name": "ExcludeFromFees",
      "type": "event"
    },
    {
      "anonymous": false,
      "inputs": [
        {
          "indexed": true,
          "internalType": "address",
          "name": "from",
          "type": "address"
        },
        {
          "indexed": false,
          "internalType": "uint256",
          "name": "amount",
          "type": "uint256"
        },
        {
          "indexed": false,
          "internalType": "uint256",
          "name": "fee",
          "type": "uint256"
        }
      ],
      "name": "FeeCollected",
      "type": "event"
    },
    {
      "anonymous": false,
      "inputs": [
        {
          "indexed": true,
          "internalType": "address",
          "name": "newWallet",
          "type": "address"
        },
        {
          "indexed": true,
          "internalType": "address",
          "name": "oldWallet",
          "type": "address"
        }
      ],
      "name": "FeeWalletUpdated",
      "type": "event"
    },
    {
      "anonymous": false,
      "inputs": [
        {
          "indexed": false,
          "internalType": "uint256",
          "name": "amount",
          "type": "uint256"
        }
      ],
      "name": "ManualSwapExecuted",
      "type": "event"
    },
    {
      "anonymous": false,
      "inputs": [
        {
          "indexed": true,
          "internalType": "address",
          "name": "previousOwner",
          "type": "address"
        },
        {
          "indexed": true,
          "internalType": "address",
          "name": "newOwner",
          "type": "address"
        }
      ],
      "name": "OwnershipTransferred",
      "type": "event"
    },
    {
      "anonymous": false,
      "inputs": [
        {
          "indexed": false,
          "internalType": "uint256",
          "name": "oldFee",
          "type": "uint256"
        },
        {
          "indexed": false,
          "internalType": "uint256",
          "name": "newFee",
          "type": "uint256"
        }
      ],
      "name": "SellFeeUpdated",
      "type": "event"
    },
    {
      "anonymous": false,
      "inputs": [
        {
          "indexed": true,
          "internalType": "address",
          "name": "pair",
          "type": "address"
        },
        {
          "indexed": true,
          "internalType": "bool",
          "name": "value",
          "type": "bool"
        }
      ],
      "name": "SetAutomatedMarketMakerPair",
      "type": "event"
    },
    {
      "anonymous": false,
      "inputs": [
        {
          "indexed": false,
          "internalType": "uint256",
          "name": "tokensSwapped",
          "type": "uint256"
        },
        {
          "indexed": false,
          "internalType": "uint256",
          "name": "ethReceived",
          "type": "uint256"
        }
      ],
      "name": "SwapBackExecuted",
      "type": "event"
    },
    {
      "anonymous": false,
      "inputs": [
        {
          "indexed": false,
          "internalType": "uint256",
          "name": "tokensSwapped",
          "type": "uint256"
        },
        {
          "indexed": false,
          "internalType": "uint256",
          "name": "ethReceived",
          "type": "uint256"
        }
      ],
      "name": "SwapExecuted",
      "type": "event"
    },
    {
      "anonymous": false,
      "inputs": [
        {
          "indexed": false,
          "internalType": "uint256",
          "name": "tokensAttempted",
          "type": "uint256"
        }
      ],
      "name": "SwapFailed",
      "type": "event"
    },
    {
      "anonymous": false,
      "inputs": [
        {
          "indexed": true,
          "internalType": "address",
          "name": "from",
          "type": "address"
        },
        {
          "indexed": true,
          "internalType": "address",
          "name": "to",
          "type": "address"
        },
        {
          "indexed": false,
          "internalType": "uint256",
          "name": "amount",
          "type": "uint256"
        }
      ],
      "name": "Transfer",
      "type": "event"
    },
    {
      "anonymous": false,
      "inputs": [
        {
          "indexed": true,
          "internalType": "address",
          "name": "from",
          "type": "address"
        },
        {
          "indexed": true,
          "internalType": "address",
          "name": "to",
          "type": "address"
        },
        {
          "indexed": true,
          "internalType": "uint256",
          "name": "id",
          "type": "uint256"
        }
      ],
      "name": "Transfer",
      "type": "event"
    },
    {
      "inputs": [],
      "name": "DOMAIN_SEPARATOR",
      "outputs": [
        {
          "internalType": "bytes32",
          "name": "",
          "type": "bytes32"
        }
      ],
      "stateMutability": "view",
      "type": "function"
    },
    {
      "inputs": [],
      "name": "ID_ENCODING_PREFIX",
      "outputs": [
        {
          "internalType": "uint256",
          "name": "",
          "type": "uint256"
        }
      ],
      "stateMutability": "view",
      "type": "function"
    },
    {
      "inputs": [
        {
          "internalType": "address",
          "name": "",
          "type": "address"
        },
        {
          "internalType": "address",
          "name": "",
          "type": "address"
        }
      ],
      "name": "allowance",
      "outputs": [
        {
          "internalType": "uint256",
          "name": "",
          "type": "uint256"
        }
      ],
      "stateMutability": "view",
      "type": "function"
    },
    {
      "inputs": [
        {
          "internalType": "address",
          "name": "spender_",
          "type": "address"
        },
        {
          "internalType": "uint256",
          "name": "valueOrId_",
          "type": "uint256"
        }
      ],
      "name": "approve",
      "outputs": [
        {
          "internalType": "bool",
          "name": "",
          "type": "bool"
        }
      ],
      "stateMutability": "nonpayable",
      "type": "function"
    },
    {
      "inputs": [
        {
          "internalType": "address",
          "name": "",
          "type": "address"
        }
      ],
      "name": "automatedMarketMakerPairs",
      "outputs": [
        {
          "internalType": "bool",
          "name": "",
          "type": "bool"
        }
      ],
      "stateMutability": "view",
      "type": "function"
    },
    {
      "inputs": [
        {
          "internalType": "address",
          "name": "",
          "type": "address"
        }
      ],
      "name": "balanceOf",
      "outputs": [
        {
          "internalType": "uint256",
          "name": "",
          "type": "uint256"
        }
      ],
      "stateMutability": "view",
      "type": "function"
    },
    {
      "inputs": [],
      "name": "baseURI",
      "outputs": [
        {
          "internalType": "string",
          "name": "",
          "type": "string"
        }
      ],
      "stateMutability": "view",
      "type": "function"
    },
    {
      "inputs": [],
      "name": "buyFee",
      "outputs": [
        {
          "internalType": "uint256",
          "name": "",
          "type": "uint256"
        }
      ],
      "stateMutability": "view",
      "type": "function"
    },
    {
      "inputs": [],
      "name": "deadAddress",
      "outputs": [
        {
          "internalType": "address",
          "name": "",
          "type": "address"
        }
      ],
      "stateMutability": "view",
      "type": "function"
    },
    {
      "inputs": [],
      "name": "decimals",
      "outputs": [
        {
          "internalType": "uint8",
          "name": "",
          "type": "uint8"
        }
      ],
      "stateMutability": "view",
      "type": "function"
    },
    {
      "inputs": [
        {
          "internalType": "address",
          "name": "spender_",
          "type": "address"
        },
        {
          "internalType": "uint256",
          "name": "value_",
          "type": "uint256"
        }
      ],
      "name": "erc20Approve",
      "outputs": [
        {
          "internalType": "bool",
          "name": "",
          "type": "bool"
        }
      ],
      "stateMutability": "nonpayable",
      "type": "function"
    },
    {
      "inputs": [
        {
          "internalType": "address",
          "name": "owner_",
          "type": "address"
        }
      ],
      "name": "erc20BalanceOf",
      "outputs": [
        {
          "internalType": "uint256",
          "name": "",
          "type": "uint256"
        }
      ],
      "stateMutability": "view",
      "type": "function"
    },
    {
      "inputs": [],
      "name": "erc20TotalSupply",
      "outputs": [
        {
          "internalType": "uint256",
          "name": "",
          "type": "uint256"
        }
      ],
      "stateMutability": "view",
      "type": "function"
    },
    {
      "inputs": [
        {
          "internalType": "address",
          "name": "from_",
          "type": "address"
        },
        {
          "internalType": "address",
          "name": "to_",
          "type": "address"
        },
        {
          "internalType": "uint256",
          "name": "value_",
          "type": "uint256"
        }
      ],
      "name": "erc20TransferFrom",
      "outputs": [
        {
          "internalType": "bool",
          "name": "",
          "type": "bool"
        }
      ],
      "stateMutability": "nonpayable",
      "type": "function"
    },
    {
      "inputs": [
        {
          "internalType": "address",
          "name": "spender_",
          "type": "address"
        },
        {
          "internalType": "uint256",
          "name": "id_",
          "type": "uint256"
        }
      ],
      "name": "erc721Approve",
      "outputs": [],
      "stateMutability": "nonpayable",
      "type": "function"
    },
    {
      "inputs": [
        {
          "internalType": "address",
          "name": "owner_",
          "type": "address"
        }
      ],
      "name": "erc721BalanceOf",
      "outputs": [
        {
          "internalType": "uint256",
          "name": "",
          "type": "uint256"
        }
      ],
      "stateMutability": "view",
      "type": "function"
    },
    {
      "inputs": [],
      "name": "erc721TotalSupply",
      "outputs": [
        {
          "internalType": "uint256",
          "name": "",
          "type": "uint256"
        }
      ],
      "stateMutability": "view",
      "type": "function"
    },
    {
      "inputs": [
        {
          "internalType": "address",
          "name": "target_",
          "type": "address"
        }
      ],
      "name": "erc721TransferExempt",
      "outputs": [
        {
          "internalType": "bool",
          "name": "",
          "type": "bool"
        }
      ],
      "stateMutability": "view",
      "type": "function"
    },
    {
      "inputs": [
        {
          "internalType": "address",
          "name": "from_",
          "type": "address"
        },
        {
          "internalType": "address",
          "name": "to_",
          "type": "address"
        },
        {
          "internalType": "uint256",
          "name": "id_",
          "type": "uint256"
        }
      ],
      "name": "erc721TransferFrom",
      "outputs": [],
      "stateMutability": "nonpayable",
      "type": "function"
    },
    {
      "inputs": [
        {
          "internalType": "address",
          "name": "account",
          "type": "address"
        },
        {
          "internalType": "bool",
          "name": "excluded",
          "type": "bool"
        }
      ],
      "name": "excludeFromFees",
      "outputs": [],
      "stateMutability": "nonpayable",
      "type": "function"
    },
    {
      "inputs": [],
      "name": "feeWallet",
      "outputs": [
        {
          "internalType": "address",
          "name": "",
          "type": "address"
        }
      ],
      "stateMutability": "view",
      "type": "function"
    },
    {
      "inputs": [
        {
          "internalType": "uint256",
          "name": "",
          "type": "uint256"
        }
      ],
      "name": "getApproved",
      "outputs": [
        {
          "internalType": "address",
          "name": "",
          "type": "address"
        }
      ],
      "stateMutability": "view",
      "type": "function"
    },
    {
      "inputs": [],
      "name": "getERC721QueueLength",
      "outputs": [
        {
          "internalType": "uint256",
          "name": "",
          "type": "uint256"
        }
      ],
      "stateMutability": "view",
      "type": "function"
    },
    {
      "inputs": [
        {
          "internalType": "uint256",
          "name": "start_",
          "type": "uint256"
        },
        {
          "internalType": "uint256",
          "name": "count_",
          "type": "uint256"
        }
      ],
      "name": "getERC721TokensInQueue",
      "outputs": [
        {
          "internalType": "uint256[]",
          "name": "",
          "type": "uint256[]"
        }
      ],
      "stateMutability": "view",
      "type": "function"
    },
    {
      "inputs": [
        {
          "internalType": "address",
          "name": "",
          "type": "address"
        },
        {
          "internalType": "address",
          "name": "",
          "type": "address"
        }
      ],
      "name": "isApprovedForAll",
      "outputs": [
        {
          "internalType": "bool",
          "name": "",
          "type": "bool"
        }
      ],
      "stateMutability": "view",
      "type": "function"
    },
    {
      "inputs": [
        {
          "internalType": "address",
          "name": "account",
          "type": "address"
        }
      ],
      "name": "isExcludedFromFees",
      "outputs": [
        {
          "internalType": "bool",
          "name": "",
          "type": "bool"
        }
      ],
      "stateMutability": "view",
      "type": "function"
    },
    {
      "inputs": [],
      "name": "minted",
      "outputs": [
        {
          "internalType": "uint256",
          "name": "",
          "type": "uint256"
        }
      ],
      "stateMutability": "view",
      "type": "function"
    },
    {
      "inputs": [],
      "name": "name",
      "outputs": [
        {
          "internalType": "string",
          "name": "",
          "type": "string"
        }
      ],
      "stateMutability": "view",
      "type": "function"
    },
    {
      "inputs": [
        {
          "internalType": "address",
          "name": "",
          "type": "address"
        }
      ],
      "name": "nonces",
      "outputs": [
        {
          "internalType": "uint256",
          "name": "",
          "type": "uint256"
        }
      ],
      "stateMutability": "view",
      "type": "function"
    },
    {
      "inputs": [
        {
          "internalType": "address",
          "name": "owner_",
          "type": "address"
        }
      ],
      "name": "owned",
      "outputs": [
        {
          "internalType": "uint256[]",
          "name": "",
          "type": "uint256[]"
        }
      ],
      "stateMutability": "view",
      "type": "function"
    },
    {
      "inputs": [],
      "name": "owner",
      "outputs": [
        {
          "internalType": "address",
          "name": "",
          "type": "address"
        }
      ],
      "stateMutability": "view",
      "type": "function"
    },
    {
      "inputs": [
        {
          "internalType": "uint256",
          "name": "id_",
          "type": "uint256"
        }
      ],
      "name": "ownerOf",
      "outputs": [
        {
          "internalType": "address",
          "name": "erc721Owner",
          "type": "address"
        }
      ],
      "stateMutability": "view",
      "type": "function"
    },
    {
      "inputs": [
        {
          "internalType": "address",
          "name": "owner_",
          "type": "address"
        },
        {
          "internalType": "address",
          "name": "spender_",
          "type": "address"
        },
        {
          "internalType": "uint256",
          "name": "value_",
          "type": "uint256"
        },
        {
          "internalType": "uint256",
          "name": "deadline_",
          "type": "uint256"
        },
        {
          "internalType": "uint8",
          "name": "v_",
          "type": "uint8"
        },
        {
          "internalType": "bytes32",
          "name": "r_",
          "type": "bytes32"
        },
        {
          "internalType": "bytes32",
          "name": "s_",
          "type": "bytes32"
        }
      ],
      "name": "permit",
      "outputs": [],
      "stateMutability": "nonpayable",
      "type": "function"
    },
    {
      "inputs": [],
      "name": "renounceOwnership",
      "outputs": [],
      "stateMutability": "nonpayable",
      "type": "function"
    },
    {
      "inputs": [
        {
          "internalType": "address",
          "name": "from_",
          "type": "address"
        },
        {
          "internalType": "address",
          "name": "to_",
          "type": "address"
        },
        {
          "internalType": "uint256",
          "name": "id_",
          "type": "uint256"
        }
      ],
      "name": "safeTransferFrom",
      "outputs": [],
      "stateMutability": "nonpayable",
      "type": "function"
    },
    {
      "inputs": [
        {
          "internalType": "address",
          "name": "from_",
          "type": "address"
        },
        {
          "internalType": "address",
          "name": "to_",
          "type": "address"
        },
        {
          "internalType": "uint256",
          "name": "id_",
          "type": "uint256"
        },
        {
          "internalType": "bytes",
          "name": "data_",
          "type": "bytes"
        }
      ],
      "name": "safeTransferFrom",
      "outputs": [],
      "stateMutability": "nonpayable",
      "type": "function"
    },
    {
      "inputs": [],
      "name": "sellFee",
      "outputs": [
        {
          "internalType": "uint256",
          "name": "",
          "type": "uint256"
        }
      ],
      "stateMutability": "view",
      "type": "function"
    },
    {
      "inputs": [
        {
          "internalType": "address",
          "name": "operator_",
          "type": "address"
        },
        {
          "internalType": "bool",
          "name": "approved_",
          "type": "bool"
        }
      ],
      "name": "setApprovalForAll",
      "outputs": [],
      "stateMutability": "nonpayable",
      "type": "function"
    },
    {
      "inputs": [
        {
          "internalType": "address",
          "name": "pair",
          "type": "address"
        },
        {
          "internalType": "bool",
          "name": "value",
          "type": "bool"
        }
      ],
      "name": "setAutomatedMarketMakerPair",
      "outputs": [],
      "stateMutability": "nonpayable",
      "type": "function"
    },
    {
      "inputs": [
        {
          "internalType": "string",
          "name": "baseURI_",
          "type": "string"
        }
      ],
      "name": "setBaseURI",
      "outputs": [],
      "stateMutability": "nonpayable",
      "type": "function"
    },
    {
      "inputs": [
        {
          "internalType": "uint256",
          "name": "newBuyFee",
          "type": "uint256"
        }
      ],
      "name": "setBuyFee",
      "outputs": [],
      "stateMutability": "nonpayable",
      "type": "function"
    },
    {
      "inputs": [
        {
          "internalType": "address",
          "name": "newFeeWallet",
          "type": "address"
        }
      ],
      "name": "setFeeWallet",
      "outputs": [],
      "stateMutability": "nonpayable",
      "type": "function"
    },
    {
      "inputs": [
        {
          "internalType": "bool",
          "name": "state_",
          "type": "bool"
        }
      ],
      "name": "setSelfERC721TransferExempt",
      "outputs": [],
      "stateMutability": "nonpayable",
      "type": "function"
    },
    {
      "inputs": [
        {
          "internalType": "uint256",
          "name": "newSellFee",
          "type": "uint256"
        }
      ],
      "name": "setSellFee",
      "outputs": [],
      "stateMutability": "nonpayable",
      "type": "function"
    },
    {
      "inputs": [
        {
          "internalType": "bytes4",
          "name": "interfaceId",
          "type": "bytes4"
        }
      ],
      "name": "supportsInterface",
      "outputs": [
        {
          "internalType": "bool",
          "name": "",
          "type": "bool"
        }
      ],
      "stateMutability": "view",
      "type": "function"
    },
    {
      "inputs": [
        {
          "internalType": "uint256",
          "name": "amount",
          "type": "uint256"
        }
      ],
      "name": "swapTokensManually",
      "outputs": [],
      "stateMutability": "nonpayable",
      "type": "function"
    },
    {
      "inputs": [],
      "name": "symbol",
      "outputs": [
        {
          "internalType": "string",
          "name": "",
          "type": "string"
        }
      ],
      "stateMutability": "view",
      "type": "function"
    },
    {
      "inputs": [
        {
          "internalType": "uint256",
          "name": "id_",
          "type": "uint256"
        }
      ],
      "name": "tokenURI",
      "outputs": [
        {
          "internalType": "string",
          "name": "",
          "type": "string"
        }
      ],
      "stateMutability": "view",
      "type": "function"
    },
    {
      "inputs": [],
      "name": "totalSupply",
      "outputs": [
        {
          "internalType": "uint256",
          "name": "",
          "type": "uint256"
        }
      ],
      "stateMutability": "view",
      "type": "function"
    },
    {
      "inputs": [
        {
          "internalType": "address",
          "name": "to_",
          "type": "address"
        },
        {
          "internalType": "uint256",
          "name": "value_",
          "type": "uint256"
        }
      ],
      "name": "transfer",
      "outputs": [
        {
          "internalType": "bool",
          "name": "",
          "type": "bool"
        }
      ],
      "stateMutability": "nonpayable",
      "type": "function"
    },
    {
      "inputs": [
        {
          "internalType": "address",
          "name": "from_",
          "type": "address"
        },
        {
          "internalType": "address",
          "name": "to_",
          "type": "address"
        },
        {
          "internalType": "uint256",
          "name": "valueOrId_",
          "type": "uint256"
        }
      ],
      "name": "transferFrom",
      "outputs": [
        {
          "internalType": "bool",
          "name": "",
          "type": "bool"
        }
      ],
      "stateMutability": "nonpayable",
      "type": "function"
    },
    {
      "inputs": [
        {
          "internalType": "address",
          "name": "newOwner",
          "type": "address"
        }
      ],
      "name": "transferOwnership",
      "outputs": [],
      "stateMutability": "nonpayable",
      "type": "function"
    },
    {
      "inputs": [],
      "name": "uniswapV2Pair",
      "outputs": [
        {
          "internalType": "address",
          "name": "",
          "type": "address"
        }
      ],
      "stateMutability": "view",
      "type": "function"
    },
    {
      "inputs": [],
      "name": "uniswapV2Router",
      "outputs": [
        {
          "internalType": "contract IUniswapV2Router02",
          "name": "",
          "type": "address"
        }
      ],
      "stateMutability": "view",
      "type": "function"
    },
    {
      "inputs": [],
      "name": "units",
      "outputs": [
        {
          "internalType": "uint256",
          "name": "",
          "type": "uint256"
        }
      ],
      "stateMutability": "view",
      "type": "function"
    },
    {
      "stateMutability": "payable",
      "type": "receive"
    }
  ],
  "bytecode": "0x610120806040523462000d0c57620048638038038091620000218285620011bf565b833981016101208282031262000d0c5781516001600160401b03811162000d0c578162000050918401620011e3565b602083015190916001600160401b03821162000d0c5762000073918401620011e3565b9160408101519260ff8416840362000d0c57606082015192620000996080840162001259565b91620000a860a0850162001259565b95620000b760c0860162001259565b9161010060e08701519601519360018060a01b03861615620011a657600080546001600160a01b038881166001600160a01b0319831681178455929116907f8be0079c531659141344cd1fd0a4f28419497f9722a3daafe3b4186f6b6457e09080a38051906001600160401b03821162000a295781906200013a6003546200126e565b601f811162001145575b50602090601f8311600114620010c757600092620010bb575b50508160011b916000199060031b1c1916176003555b8051906001600160401b03821162000a29578190620001946004546200126e565b601f811162001049575b50602090601f831160011462000fba5760009262000fae575b50508160011b916000199060031b1c1916176004555b601260ff82161062000f9c5780608052604d60ff82161162000a135760ff16600a0a60a0524660c0526040516003548160006200020a836200126e565b808352926001811690811562000f7b575060011462000f28575b6200023292500382620011bf565b60208151910120604051907f8b73c3c69bb8fe3d512ecc4cf759cc79239f7b179b0ffacaa9a75d522b39400f602083015260408201527fc89efdaa54c0f20c7adf612882df0950f5a951637e0307cdcb4c672f298b8bc660608201524660808201523060a082015260a081528060c081011060018060401b0360c08301111762000a295760c081016040526020815191012060e052620002d281620012ab565b60405163c45a015560e01b81526020816004816001600160a01b0386165afa90811562000d1a5760009162000ee6575b506040516315ab88c960e31b8152906020826004816001600160a01b0387165afa91821562000d1a5760009262000ea2575b506001600160a01b03821630101562000e9b5730915b6040516001600160601b0319606094851b8116602083015291841b9091166034820152602881529182018083116001600160401b039091111762000a295760608281016040819052835160208501207fff0000000000000000000000000000000000000000000000000000000000000060808601529290911b6001600160601b031916608184015260958301919091527f96e8ac4277198ff8b6f785478aa9a39f403cb768dd02cbee326c3e7da348845f60b5830152605581526001600160401b0360e0830190811191111762000a295760e08101604052606081015160809091012062000441906001600160a01b0316620012ab565b600a841162000e6357600a821162000e2a576001600160a01b0381161562000df4576001600160a01b0386161562000dbb576001600160a01b03811661010081905260405163c45a015560e01b81529190602090839060049082905afa91821562000d1a5760009262000d72575b506040516315ab88c960e31b815290602090829060049082906001600160a01b03165afa90811562000d1a5760009162000d26575b506040516364e329cb60e11b81523060048201526001600160a01b0391821660248201529160209183916044918391600091165af190811562000d1a5760009162000cd3575b5060018060a01b0316928360018060a01b0319600f541617600f558360005260156020526040600020600160ff198254161790556001604051947fffa9187bf1f18bf477bd0ea1bcbb64e93b6a98132473929edfce215cd9b16fab600080a360125560135560118054610100600160a81b03191660089290921b610100600160a81b03169190911790556000546001600160a01b0316330362000cbe57503060005260146020526040600020600160ff19825416179055604051600181526000805160206200480383398151915260203092a2600054336001600160a01b039091160362000ca65761dead60005260146020526040600020600160ff1982541617905561dead60008051602062004803833981519152602060405160018152a2600054336001600160a01b039091160362000ca6576001600160a01b038216600081815260146020908152604091829020805460ff1916600190811790915591519182526000805160206200480383398151915291a2600f54620006b7906001600160a01b0316620012ab565b620006c230620012ab565b61dead600052600c60205260406000205460005b81811062000aca57505061dead600052600d6020527fdc7fafdc41998a74ecacb8f8bd877011aba1f1d03a3a0d37a2e7879a393b1d6a805460ff191660011790556200072282620012ab565b60a05190808281020482148115171562000a135760055491600160ff1b6200074d83830285620014bd565b1162000aa65760076020526001600160a01b03841660009081526040902054926200077c9083830290620014bd565b6005556001600160a01b03841660008181526007602090815260408083208054969095029586019094559251938452909290916000805160206200484383398151915291a36001600160a01b0382166000908152600d602052604090205460ff16156200084c575b60405161326690816200157d823960805181611823015260a051818181610e1d015281816111ac0152818161220e01528181612ce401528181612d6a0152612dcd015260c05181611da2015260e05181611dc90152610100518181816118b401526123eb0152f35b6007602052620008746200086960406000205460a05190620014cb565b9160a05190620014cb565b810390811162000a135760005b818110620008905750620007e4565b6001600160a01b0383161562000ab857600154608081901c6001600160801b039091161462000a6357600154608081901c6001600160801b0382161462000a515760001960809190911c016001600160801b0381166000908152600260205260408120805492919055600180546001600160801b031660809290921b6001600160801b031916919091179055905b6000828152600b60205260409020546001600160a01b0316918262000a3f576000818152600b6020908152604080832080546001600160a01b0319166001600160a01b038a169081019091558352600c909152902080546801000000000000000081101562000a29576200099e81620009b79360018694018155620014ec565b90919082549060031b91821b91600019901b1916179055565b6001600160a01b0385166000908152600c6020526040902054926000198401841062000a1357620009ef60019460001901836200151b565b838060a01b0386169060008051602062004843833981519152600080a40162000881565b634e487b7160e01b600052601160045260246000fd5b634e487b7160e01b600052604160045260246000fd5b60405163119b4fd360e11b8152600490fd5b6040516375e52f4f60e01b8152600490fd5b600654600019811462000a135760018101806006556000191462000aa6576001600160ff1b018101600160ff1b1162000a13576001600160ff1b0101906200091e565b60405163303b682f60e01b8152600490fd5b604051634e46966960e11b8152600490fd5b61dead600052600c602052600080516020620047e38339815191528054906000198201821062000a135762000b04916000190190620014ec565b90549060031b1c90816000526009602052604060002060018060a01b0319815416905561dead600052600c60205260406000208054908160001981011162000a135762000b56916000190190620014ec565b90549060031b1c82810362000c61575b5061dead600052600c602052600080516020620047e38339815191528054801562000c4b57600019019062000bb162000ba08383620014ec565b8154906000199060031b1b19169055565b5581600052600b6020526000604081205581600061dead600080516020620048438339815191528280a46001546001600160801b0390818116600019018216608082901c1462000c395760001990821601166001600160801b038116600090815260026020526040902092909255600180546001600160801b031916909217825501620006d6565b604051638acb5f2760e01b8152600490fd5b634e487b7160e01b600052603160045260246000fd5b62000c9f9083600052600b60205260406000205460a01c9061dead600052600c60205262000c99816200099e846040600020620014ec565b6200151b565b3862000b66565b60405163118cdaa760e01b8152336004820152602490fd5b63118cdaa760e01b8152336004820152602490fd5b90506020813d60201162000d11575b8162000cf160209383620011bf565b8101031262000d0c5762000d059062001259565b386200052a565b600080fd5b3d915062000ce2565b6040513d6000823e3d90fd5b90506020813d60201162000d69575b8162000d4460209383620011bf565b8101031262000d0c57600091604462000d5f60209362001259565b92505091620004e4565b3d915062000d35565b9091506020813d60201162000db2575b8162000d9160209383620011bf565b8101031262000d0c57602062000da960049262001259565b929150620004af565b3d915062000d82565b60405162461bcd60e51b8152602060048201526011602482015270125b9d985b1a59081c9958da5c1a595b9d607a1b6044820152606490fd5b60405162461bcd60e51b815260206004820152600e60248201526d24b73b30b634b2103937baba32b960911b6044820152606490fd5b60405162461bcd60e51b81526020600482015260116024820152700a6cad8d840cccaca40e8dede40d0d2ced607b1b6044820152606490fd5b60405162461bcd60e51b815260206004820152601060248201526f084eaf240cccaca40e8dede40d0d2ced60831b6044820152606490fd5b306200034a565b9091506020813d60201162000edd575b8162000ec160209383620011bf565b8101031262000d0c5762000ed59062001259565b903862000334565b3d915062000eb2565b90506020813d60201162000f1f575b8162000f0460209383620011bf565b8101031262000d0c5762000f189062001259565b3862000302565b3d915062000ef5565b50600360009081529091600080516020620048238339815191525b81831062000f5e575050906020620002329282010162000224565b602091935080600191548385880101520191019091839262000f43565b602092506200023294915060ff191682840152151560051b82010162000224565b6040516398790fd560e01b8152600490fd5b015190503880620001b7565b6004600090815293507f8a35acfbc15ff81a39ae7d344fd709f28e8600b4aa8c65c6b64bfe7fe36bd19b91905b601f19841685106200102d576001945083601f1981161062001013575b505050811b01600455620001cd565b015160001960f88460031b161c1916905538808062001004565b8181015183556020948501946001909301929091019062000fe7565b60046000529091507f8a35acfbc15ff81a39ae7d344fd709f28e8600b4aa8c65c6b64bfe7fe36bd19b601f840160051c810160208510620010b3575b90849392915b601f830160051c82018110620010a35750506200019e565b600081558594506001016200108b565b508062001085565b0151905038806200015d565b6003600090815293506000805160206200482383398151915291905b601f198416851062001129576001945083601f198116106200110f575b505050811b0160035562000173565b015160001960f88460031b161c1916905538808062001100565b81810151835560209485019460019093019290910190620010e3565b600360005290915060008051602062004823833981519152601f840160051c8101602085106200119e575b90849392915b601f830160051c820181106200118e57505062000144565b6000815585945060010162001176565b508062001170565b604051631e4fbdf760e01b815260006004820152602490fd5b601f909101601f19168101906001600160401b0382119082101762000a2957604052565b919080601f8401121562000d0c5782516001600160401b03811162000a2957602090604051926200121e83601f19601f8501160185620011bf565b81845282828701011162000d0c5760005b8181106200124557508260009394955001015290565b85810183015184820184015282016200122f565b51906001600160a01b038216820362000d0c57565b90600182811c92168015620012a0575b60208310146200128a57565b634e487b7160e01b600052602260045260246000fd5b91607f16916200127e565b6001600160a01b0316801580620014ab57600090828252600c92602091600c83526040948585205491855b838110620012f75750505090835250600d905220805460ff19166001179055565b816200149a57848752828652878720805460001992918382019182116200148657906200132491620014ec565b9054600391821b1c808a52600989528a8a2080546001600160a01b0319169055878a528589528a8a20805491949291808401919082116200147257916200136e8b928d94620014ec565b9054911b1c898d8783036200143b575b509291505052848852898920805480156200142757820190620013a662000ba08383620014ec565b55828952600b8852888a812055828988600080516020620048438339815191528280a460019283549160018060801b039081841601169160801c821462001416576001600160801b03821660009081526002602052604090205582546001600160801b03191617825501620012d6565b8a51638acb5f2760e01b8152600490fd5b634e487b7160e01b8b52603160045260248bfd5b6200099e62000c99928492878b620014679952600b88528d8282205460a01c98899483525220620014ec565b888838898d6200137e565b634e487b7160e01b8c52601160045260248cfd5b634e487b7160e01b8a52601160045260248afd5b8751636edaef2f60e11b8152600490fd5b60405163a41e3d3f60e01b8152600490fd5b9190820180921162000a1357565b8115620014d6570490565b634e487b7160e01b600052601260045260246000fd5b8054821015620015055760005260206000200190600090565b634e487b7160e01b600052603260045260246000fd5b6000818152600b602052604090205491906001600160601b0382116200156a576000908152600b602052604090206001600160a01b039290921660a09190911b6001600160a01b031916019055565b604051633f2cd0e360e21b8152600490fdfe6080604081815260049081361015610022575b505050361561002057600080fd5b005b600092833560e01c90816301ffc9a714611aa85750806302519da3146112d557806306fdde03146119f5578063081812fc146119c2578063095ea7b31461199957806309674eb01461196957806309f0ef65146119435780630cc835a3146118e35780631694505e1461189f57806318160ddd1461122457806323b872dd1461188357806327c8f835146118665780632b14ca5614611847578063313ce567146118095780633644e515146117e557806342842e0e14611796578063470624021461177757806349bd5a5e1461174e5780634d966072146117255780634f02c420146109ec5780634fbee193146116e757806355f804b31461156b57806362f1e66c146114715780636352211e146113f55780636c0360eb1461132c5780636e8f624b1461130d57806370a08231146112d5578063715018a61461127b5780637ecebe001461124357806389fb4c66146112245780638a696e50146111205780638b4cee08146110c05780638da5cb5b1461109857806390d49b9d14610f1b57806395d89b4114610e40578063976a843514610e055780639a7a23d614610ccf578063a22cb46514610c34578063a9059cbb14610be3578063b1ab931714610b61578063b3f9ea3414610b29578063b62496f514610aeb578063b88d4fde14610a86578063c024666814610a0b578063c5ab3ba6146109ec578063c87b56dd14610799578063d505accf1461056b578063d96ca0b914610546578063dd62ed3e146104fd578063dd637699146104e5578063dfabc033146104ba578063e985e9c51461046c578063f25f4b561461043b578063f2fde38b146103b45763f780bc1a0361001257346103b057806003193601126103b0578135602490602435916102aa8361234a565b946102b785519687611b67565b8386526102c38461234a565b60209290601f1901368885013783976102ed6001546001600160801b03908181169060801c031690565b956001600160801b039060019788918360015416925b610319575b8a51806103158e82611c7e565b0390f35b610327818a9d9c9b9d612362565b8d10156103a757818d10156103975761035984808f168501166001600160801b03166000526002602052604060002090565b549c6103658a826120e8565b8c5181101561038557908d9e8a8e9f9d9e8e9460051b010152019c610303565b634e487b7160e01b8752603289528787fd5b895163580821e760e01b81528790fd5b899a9b50610308565b8280fd5b5090346103b05760203660031901126103b0576103cf611afc565b906103d861236f565b6001600160a01b0391821692831561042557505082546001600160a01b0319811683178455167f8be0079c531659141344cd1fd0a4f28419497f9722a3daafe3b4186f6b6457e08380a380f35b51631e4fbdf760e01b8152908101849052602490fd5b838234610468578160031936011261046857601154905160089190911c6001600160a01b03168152602090f35b5080fd5b83823461046857806003193601126104685760ff8160209361048c611afc565b610494611b17565b6001600160a01b039182168352600a875283832091168252855220549151911615158152f35b838234610468573660031901126104e2576104df6104d6611afc565b602435906122a8565b80f35b80fd5b83346104e2576104df6104f736611be7565b916121a4565b8382346104685780600319360112610468578060209261051b611afc565b610523611b17565b6001600160a01b0391821683526008865283832091168252845220549051908152f35b8382346104685760209061056261055c36611be7565b9161210b565b90519015158152f35b508290346104685760e036600319011261046857610587611afc565b90610590611b17565b604435606435926084359260ff84168094036107955742851061078557600160ff1b831180610779575b610769576001600160a01b0390811695861561075957816105d9611d9d565b911695868952602095600e8752848a2092835493600185019055855192888401947f6e71edae12b1b97f4d1f60370fef10105fa2faae0126114a169c64845d6126c986528a888601528b606086015288608086015260a085015260c084015260c0835260e0830167ffffffffffffffff9484821086831117610745578188528451902061010085019261190160f01b8452610102860152610122850152604281526101608401948186109086111761073257848752519020835261018082015260a4356101a082015260c4356101c0909101528780528490889060809060015afa15610728578651168015801561071e575b61070e578652600883528086208587528352808620829055519081527f8c5be1e5ebec7d5bd14f71427d1e84f3dd0314c0f7b2291e5b200ac8c7c3b9259190a380f35b8151632057875960e21b81528890fd5b50848114156106cb565b81513d88823e3d90fd5b634e487b7160e01b8c5260418d5260248cfd5b50634e487b7160e01b8c5260418d5260248cfd5b8251635461585f60e01b81528990fd5b81516303e7c1bd60e31b81528890fd5b506000198314156105ba565b81516305787bdf60e01b81528890fd5b8680fd5b50346103b057602091826003193601126109e857803590819480917a184f03e93ff9f4daa797ed6e38ed64bf6a1f010000000000000000808510156109db575b506d04ee2d6d415b85acef8100000000808810156109cd575b50662386f26fc10000808810156109be575b506305f5e100808810156109af575b50612710808810156109a0575b50506064861015610990575b600a80961015610986575b600191600181019661086061084b89611c1c565b9861085888519a8b611b67565b808a52611c1c565b94846021898b0194601f198099013687378b0101905b610957575b5050508451968793836010549161089183611b2d565b928a6001821691826000146109305750506001146108e2575b50505091806108c66108d3959361031598979551938491611b9f565b0103908101865285611b67565b51928284938452830190611bc2565b8993949550601082526000805160206132118339815191525b838310610916575050508401019190806108c66103156108aa565b80549783018501979097528a968a949092019181016108fb565b60ff191689820152841515909402880190930195508392506108c6915061031590506108aa565b600019019082906f181899199a1a9b1b9c1cb0b131b232b360811b8282061a835304908582610876575061087b565b9060010190610837565b909460646002910495019061082c565b90919296049501903880610820565b60089193970496019138610813565b60109193970496019138610804565b8691939704960191386107f2565b84049650849250386107d9565b8380fd5b8382346104685781600319360112610468576020906006549051908152f35b8382346104685780600319360112610468577f9d8f7706ea1113d1a167b526eca956215946dd36cc7df39eb16180222d8b5df76020610a48611afc565b610a50611c6f565b90610a5961236f565b6001600160a01b031680865260148352848620805460ff191660ff8415151617905593519015158152a280f35b50503461046857608036600319011261046857610aa1611afc565b610aa9611b17565b9060643567ffffffffffffffff8111610ae75736602382011215610ae7576104df93816024610add93369301359101611c38565b9160443591611fb5565b8480fd5b8382346104685760203660031901126104685760209160ff9082906001600160a01b03610b16611afc565b1681526015855220541690519015158152f35b8382346104685760203660031901126104685760209181906001600160a01b03610b51611afc565b168152600c845220549051908152f35b8382346104685760209060206003193601126103b0576001600160a01b03610b87611afc565b168352600c60205280832092815180936020865492838152019583526020832092905b828210610bcc576103158686610bc2828b0383611b67565b5191829182611c7e565b835487529586019560019384019390910190610baa565b5082346104e257816003193601126104e25750610bfe611afc565b916001600160a01b03831615610c265750610c1f6020926024359033612626565b5160018152f35b9051634e46966960e11b8152fd5b50346103b057806003193601126103b057610c4d611afc565b90610c56611c6f565b6001600160a01b03909216928315610cc15750338452600a602052808420838552602052610c92828286209060ff801983541691151516179055565b5190151581527f17307eab39ab6107e8899845ad3d59bd9653f200f220920489ca2b5937696c3160203392a380f35b905163ccea9e6f60e01b8152fd5b5090346103b057816003193601126103b057610ce9611afc565b91610cf2611c6f565b91610cfb61236f565b600f546001600160a01b0394851694168414610d9d578315610d5b575082845260156020528320805460ff191660ff831515161790551515907fffa9187bf1f18bf477bd0ea1bcbb64e93b6a98132473929edfce215cd9b16fab8380a380f35b6020606492519162461bcd60e51b8352820152601f60248201527f43616e6e6f7420736574207a65726f20616464726573732061732070616972006044820152fd5b6020608492519162461bcd60e51b8352820152603960248201527f54686520706169722063616e6e6f742062652072656d6f7665642066726f6d2060448201527f6175746f6d617465644d61726b65744d616b65725061697273000000000000006064820152fd5b838234610468578160031936011261046857602090517f00000000000000000000000000000000000000000000000000000000000000008152f35b50346103b057826003193601126103b0578051838194908454610e6281611b2d565b9182855260209660019288600182169182600014610ef1575050600114610e96575b8588610315896108d3848a0385611b67565b815286935091907f8a35acfbc15ff81a39ae7d344fd709f28e8600b4aa8c65c6b64bfe7fe36bd19b5b828410610ed957505050820101816108d361031538610e84565b8054848a018601528895508794909301928101610ebf565b60ff19168882015294151560051b870190940194508593506108d392506103159150389050610e84565b50346103b05760203660031901126103b057610f35611afc565b90610f3e61236f565b6001600160a01b039282841690811561104757601154948560081c1692838314610ff557843b610fb25750507f362a006325d32978b283e449d254cfcf93e2cccc321603ead9a74238d8dbf36e8580a3610100600160a81b031990911660089190911b610100600160a81b03161760115580f35b906020606492519162461bcd60e51b8352820152601f60248201527f4665652077616c6c65742063616e6e6f74206265206120636f6e7472616374006044820152fd5b906020608492519162461bcd60e51b8352820152602660248201527f4665652077616c6c657420616c72656164792073657420746f2074686973206160448201526564647265737360d01b6064820152fd5b608490602084519162461bcd60e51b8352820152602560248201527f43616e6e6f7420736574207a65726f2061646472657373206173206665652077604482015264185b1b195d60da1b6064820152fd5b838234610468578160031936011261046857905490516001600160a01b039091168152602090f35b50346103b05760203660031901126103b0577f5bafec153d96f8ef37761b64348732b41a6b477401d244a5070f9f82d689adce91356110fd61236f565b61110a600a821115611d1f565b601354908060135582519182526020820152a180f35b509190346104685760203660031901126104685780359081151582036103b05733156112165750801561119857338252600c6020528282205492825b84811061118657506104df9293505b338452600d60205283209060ff801983541691151516179055565b60019061119233613073565b0161115c565b91909133835260076020526111d1828420547f000000000000000000000000000000000000000000000000000000000000000090612606565b91338452600c60205280842054845b6111ea82866120e8565b81101561120a579060016111ea9261120133612f35565b019091506111e0565b50506104df925061116b565b835163a41e3d3f60e01b8152fd5b8382346104685781600319360112610468576020906005549051908152f35b8382346104685760203660031901126104685760209181906001600160a01b0361126b611afc565b168152600e845220549051908152f35b83346104e257806003193601126104e25761129461236f565b80546001600160a01b03198116825581906001600160a01b03167f8be0079c531659141344cd1fd0a4f28419497f9722a3daafe3b4186f6b6457e08280a380f35b8382346104685760203660031901126104685760209181906001600160a01b036112fd611afc565b1681526007845220549051908152f35b83823461046857816003193601126104685751600160ff1b8152602090f35b5082346104e257806003193601126104e257815191828260105461134f81611b2d565b90818452602095600191876001821691826000146113ce575050600114611384575b50505061031592916108d3910385611b67565b9190869350601083526000805160206132118339815191525b8284106113b657505050820101816108d3610315611371565b8054848a01860152889550879490930192810161139d565b60ff19168782015293151560051b860190930193508492506108d391506103159050611371565b50829034610468576020366003190112610468578235808352600b60205291819020546001600160a01b031691600160ff1b81119081611464575b5015611455578115611446576020925051908152f35b5163c5723b5160e01b81529050fd5b516307ed98ed60e31b81529050fd5b6000191415905084611430565b50346103b05760203660031901126103b0576011548235929060081c6001600160a01b031633036115295730845260076020528184205483111580611520575b156114ed5750816020916114e57f2aeddf43c2ba32e56c27403db0fffb22b067d50b0848a40c61a5d787b1d79c969461239b565b51908152a180f35b6020606492519162461bcd60e51b8352820152600e60248201526d125b9d985b1a5908185b5bdd5b9d60921b6044820152fd5b508215156114b1565b6020606492519162461bcd60e51b8352820152601860248201527f4f6e6c79206665652077616c6c65742063616e2063616c6c00000000000000006044820152fd5b8284346104e2576020806003193601126104685767ffffffffffffffff9083358281116109e857366023820112156109e8576115b09036906024818801359101611c38565b936115b961236f565b84519283116116d457506115ce601054611b2d565b601f8111611683575b50602090601f831160011461161457508293829392611609575b50508160011b916000199060031b1c19161760105580f35b0151905083806115f1565b60108452601f19831694600080516020613211833981519152929185905b87821061166b575050836001959610611652575b505050811b0160105580f35b015160001960f88460031b161c19169055838080611646565b80600185968294968601518155019501930190611632565b60108452600080516020613211833981519152601f840160051c810191602085106116ca575b601f0160051c01905b8181106116bf57506115d7565b8481556001016116b2565b90915081906116a9565b634e487b7160e01b845260419052602483fd5b8382346104685760203660031901126104685760209160ff9082906001600160a01b03611712611afc565b1681526014855220541690519015158152f35b838234610468578060031936011261046857602090610562611745611afc565b60243590611f46565b838234610468578160031936011261046857600f5490516001600160a01b039091168152602090f35b8382346104685781600319360112610468576020906012549051908152f35b50829034610468576117a736611be7565b91835193602085019085821067ffffffffffffffff8311176117d2576104df96975052858452611fb5565b634e487b7160e01b875260418852602487fd5b838234610468578160031936011261046857602090611802611d9d565b9051908152f35b8382346104685781600319360112610468576020905160ff7f0000000000000000000000000000000000000000000000000000000000000000168152f35b8382346104685781600319360112610468576020906013549051908152f35b8382346104685781600319360112610468576020905161dead8152f35b8382346104685760209061056261189936611be7565b91611d6b565b838234610468578160031936011261046857517f00000000000000000000000000000000000000000000000000000000000000006001600160a01b03168152602090f35b50346103b05760203660031901126103b0577f28e297c7c282931a994191b735b01eaf17558295f761512a7047f4e1b8dc3b0b913561192061236f565b61192d600a821115611d1f565b601254908060125582519182526020820152a180f35b83823461046857602036600319011261046857602090610562611964611afc565b611cf3565b8382346104685781600319360112610468576020906118026001546001600160801b03908181169060801c031690565b8382346104685780600319360112610468576020906105626119b9611afc565b60243590611cba565b5090346103b05760203660031901126103b05735825260096020908152918190205490516001600160a01b039091168152f35b5082346104e257806003193601126104e2578151918282600354611a1881611b2d565b90818452602095600191876001821691826000146113ce575050600114611a4c5750505061031592916108d3910385611b67565b9190869350600383527fc2575a0e9e593c00f959f8c92f12db2869c3395a3b0502d05e2516446f71f85b5b828410611a9057505050820101816108d3610315611371565b8054848a018601528895508794909301928101611a77565b849084346103b05760203660031901126103b0573563ffffffff60e01b81168091036103b0576020925063caf91ff560e01b8114908115611aeb575b5015158152f35b6301ffc9a760e01b14905083611ae4565b600435906001600160a01b0382168203611b1257565b600080fd5b602435906001600160a01b0382168203611b1257565b90600182811c92168015611b5d575b6020831014611b4757565b634e487b7160e01b600052602260045260246000fd5b91607f1691611b3c565b90601f8019910116810190811067ffffffffffffffff821117611b8957604052565b634e487b7160e01b600052604160045260246000fd5b60005b838110611bb25750506000910152565b8181015183820152602001611ba2565b90602091611bdb81518092818552858086019101611b9f565b601f01601f1916010190565b6060906003190112611b12576001600160a01b03906004358281168103611b1257916024359081168103611b12579060443590565b67ffffffffffffffff8111611b8957601f01601f191660200190565b929192611c4482611c1c565b91611c526040519384611b67565b829481845281830111611b12578281602093846000960137010152565b602435908115158203611b1257565b602090602060408183019282815285518094520193019160005b828110611ca6575050505090565b835185529381019392810192600101611c98565b90600160ff1b811180611ce7575b15611cdb57611cd6916122a8565b600190565b611ce491611f46565b90565b50600019811415611cc8565b6001600160a01b03168015908115611d09575090565b9050600052600d60205260ff6040600020541690565b15611d2657565b60405162461bcd60e51b815260206004820152601d60248201527f4d757374206b656570206665657320617420313025206f72206c6573730000006044820152606490fd5b9190600160ff1b821180611d91575b15611d8857611cd6926121a4565b611ce49261210b565b50600019821415611d7a565b6000467f000000000000000000000000000000000000000000000000000000000000000003611deb57507f000000000000000000000000000000000000000000000000000000000000000090565b6040516003548291611dfc82611b2d565b808252816020948582019460019087600182169182600014611f28575050600114611ece575b50611e2f92500382611b67565b51902091604051918201927f8b73c3c69bb8fe3d512ecc4cf759cc79239f7b179b0ffacaa9a75d522b39400f845260408301527fc89efdaa54c0f20c7adf612882df0950f5a951637e0307cdcb4c672f298b8bc660608301524660808301523060a083015260a0825260c082019082821067ffffffffffffffff831117611eba575060405251902090565b634e487b7160e01b81526041600452602490fd5b6003885286915087907fc2575a0e9e593c00f959f8c92f12db2869c3395a3b0502d05e2516446f71f85b5b858310611f10575050611e2f935082010138611e22565b80548388018501528694508893909201918101611ef9565b60ff19168852611e2f95151560051b8501019250389150611e229050565b6001600160a01b0316908115611fa357336000526008602052604060002082600052602052806040600020556040519081527f8c5be1e5ebec7d5bd14f71427d1e84f3dd0314c0f7b2291e5b200ac8c7c3b92560203392a3600190565b604051635461585f60e01b8152600490fd5b919092600160ff1b8211806120dc575b156120ca57611fd5828585611d6b565b50833b15159384611ffd575b50505050611feb57565b604051633da6393160e01b8152600490fd5b6120479394509060209160018060a01b039360405180968194829388630a85bd0160e11b9b8c86523360048701521660248501526044840152608060648401526084830190611bc2565b03916000958691165af19182156120bd578192612076575b50506001600160e01b031916141538808080611fe1565b9091506020813d6020116120b5575b8161209260209383611b67565b810103126104685751906001600160e01b0319821682036104e25750388061205f565b3d9150612085565b50604051903d90823e3d90fd5b6040516307ed98ed60e31b8152600490fd5b50600019821415611fc5565b919082039182116120f557565b634e487b7160e01b600052601160045260246000fd5b6001600160a01b038082169392919084156121925782161561218057611cd69383600082815260086020526040812033825260205260408120546000198103612158575b50505050612626565b604092612164916120e8565b928152600860205281812033825260205220553883818061214f565b604051634e46966960e11b8152600490fd5b604051636edaef2f60e11b8152600490fd5b6001600160a01b03939291908481168015612192578583161561218057600095848752600b6020526040968188822054168303612298578790833314159384612274575b508361225c575b50505061224c576121ff82611cf3565b61223b576122399394506122347f000000000000000000000000000000000000000000000000000000000000000083836128e2565b61297d565b565b8451635ce7539760e01b8152600490fd5b84516282b42960e81b8152600490fd5b868152600960205220541633141590503886816121ef565b915080935052600a6020528682203383526020528660ff81842054161592386121e8565b87516282b42960e81b8152600490fd5b6000828152600b60205260408120546001600160a01b03908116913383141580612329575b612318577f8c5be1e5ebec7d5bd14f71427d1e84f3dd0314c0f7b2291e5b200ac8c7c3b92591858252600960205260408220941693846001600160601b0360a01b82541617905580a4565b6040516282b42960e81b8152600490fd5b50828152600a6020526040812033825260205260ff604082205416156122cd565b67ffffffffffffffff8111611b895760051b60200190565b919082018092116120f557565b6000546001600160a01b0316330361238357565b60405163118cdaa760e01b8152336004820152602490fd5b60408051909167ffffffffffffffff6060830181811184821017611b8957845260028352602092838101908536833780511561259c5730825285516315ab88c960e31b81526001600160a01b03927f000000000000000000000000000000000000000000000000000000000000000084169290918781600481875afa9081156125e8576000916125b2575b50908051916001926001101561259c5785168982015288516326cb303960e11b815284600482015287602482015288816044816000305af180156125915761255e575b50833b15611b1257919093885194859363791ac94760e01b855260a48501908960048701526000602487015260a060448701525180915260c4850193926000905b8b838310612544575050505050509181600081819530606483015242608483015203925af19182612535575b5050612505577ff9e10ddceffcb10b96e8833202366240699b814c91f371ddd9befa3aee9bc60f9251908152a1565b7f4f73e5828387c436ef01a51b03853873e76d7a5551556837d452cbeb6f285cb5929147908351928352820152a1565b8111611b8957845238806124d6565b8551821687528997509586019590940193908301906124aa565b8881813d831161258a575b6125738183611b67565b81010312611b12575180151503611b125738612469565b503d612569565b8a513d6000823e3d90fd5b634e487b7160e01b600052603260045260246000fd5b8881813d83116125e1575b6125c78183611b67565b8101031261046857519085821682036104e2575038612426565b503d6125bd565b89513d6000823e3d90fd5b818102929181159184041417156120f557565b8115612610570490565b634e487b7160e01b600052601260045260246000fd5b6001600160a01b0380821693929190841561288f57821693841561283e576126a19460125415801590612833575b80612826575b8061280d575b806127f4575b806127db575b806127c4575b6127a2575b60009060ff60115416158061278b575b80612774575b6126fd575b5090816126a4575b5050612c5a565b50565b909360406126df867f108516ddcf5ba43cea6bb2cd5ff6d59ac196c1c86ccb9178332b9dd72d1ca561936126d9823089612c5a565b506120e8565b956126ea8188612362565b9082519182526020820152a2388061269a565b8152601560205260ff60408220541680612769575b1561273057506064612726601354866125f3565b04905b9038612692565b9080825260ff6040832054168061275e575b156127295790506064612757601254866125f3565b0490612729565b506012541515612742565b506013541515612712565b50808252601460205260ff6040832054161561268d565b50828252601460205260ff60408320541615612687565b60ff1960018160115416176011556127b8612b7f565b60115416601155612677565b503060005260076020526040600020541515612672565b5080600052601460205260ff604060002054161561266c565b5081600052601460205260ff6040600020541615612666565b5081600052601560205260ff6040600020541615612660565b5060ff601154161561265a565b506013541515612654565b60405162461bcd60e51b815260206004820152602360248201527f45524332303a207472616e7366657220746f20746865207a65726f206164647260448201526265737360e81b6064820152608490fd5b60405162461bcd60e51b815260206004820152602560248201527f45524332303a207472616e736665722066726f6d20746865207a65726f206164604482015264647265737360d81b6064820152608490fd5b6001600160a01b03908116917fddf252ad1be2c89b69c2b068fc378daa952ba7f163c4a11628f55a4df523b3ef91602091846129465761292486600554612362565b6005555b169384600052600782526040600020818154019055604051908152a3565b8460005260078352604060002061295e8782546120e8565b9055612928565b805482101561259c5760005260206000200190600090565b6001600160a01b039081169182612a8d575b16908115612a78576000838152600b60205260408120836001600160601b0360a01b825416019055828152600c6020526040812080549068010000000000000000821015612a64576129eb8287926001612a0495018155612965565b90919082549060031b91821b91600019901b1916179055565b828152600c6020526040812054600019810191908211612a505750612a299084612eda565b7fddf252ad1be2c89b69c2b068fc378daa952ba7f163c4a11628f55a4df523b3ef600080a4565b634e487b7160e01b81526011600452602490fd5b634e487b7160e01b83526041600452602483fd5b82600052600b60205260006040812055612a29565b60008481526009602052604081206001600160601b0360a01b8154169055838152600c60205260408120805460001991828201918211612b6b5790612ad191612965565b90549060031b1c868103612b32575b50848252600c60205260408220918254908115612b1e57500190612b18612b078383612965565b8154906000199060031b1b19169055565b5561298f565b634e487b7160e01b81526031600452602490fd5b612b6590878452600b602052604084205460a01c90878552600c602052612b60816129eb8460408920612965565b612eda565b38612ae0565b634e487b7160e01b84526011600452602484fd5b600030815260076020526040812054908115612c5657612b9e8261239b565b4790808080808560018060a01b0360115460081c165af1903d15612c50573d90612bc782611c1c565b91612bd56040519384611b67565b825260203d92013e5b15612c15577fd7f052835057cec2a1decd4aca816a27eeacf3dea0afb8d6d017f545e4c9ebb39160409182519182526020820152a1565b60405162461bcd60e51b8152602060048201526013602482015272115512081d1c985b9cd9995c8819985a5b1959606a1b6044820152606490fd5b50612bde565b5050565b919060018060a01b03918284166000948186526020906007825260409283882054968616968789528489205495612c928189866128e2565b612c9b84611cf3565b612ca489611cf3565b908080612ed3575b15612cc3575b505050505050505050505050600190565b15612d46575050505050906007612d1092612d169596885252852054612d0a7f00000000000000000000000000000000000000000000000000000000000000008092612606565b92612606565b906120e8565b915b828110612d34575050505b388080808080808080808080612cb2565b600190612d4083612f35565b01612d18565b9890919692979398600014612dbf575050505091612d10916007612d9c9594612d907f00000000000000000000000000000000000000000000000000000000000000008095612606565b95895252862054612606565b915b828110612dad57505050612d23565b600190612db983613073565b01612d9e565b9196979095612df3999493997f00000000000000000000000000000000000000000000000000000000000000008098612606565b988991865b838110612e7157509488969294612d1098948896612e36600795612e23612e479f9e612d0a9c612606565b908852868652612d108a8a8a2054612606565b11612e62575b508352522054612606565b11612e53575b50612d23565b612e5c90612f35565b38612e4d565b612e6b90613073565b38612e3c565b90918093508752600c80875288882054906000198201918211612ebf578d612ea760019493612eb593888d528b528c8c20612965565b90549060031b1c908761297d565b01908a9291612df8565b634e487b7160e01b89526011600452602489fd5b5081612cac565b9081600052600b602052604060002054916001600160601b038211612f2357600052600b6020526001600160601b0360a01b9060a01b169060018060a01b031601604060002055565b604051633f2cd0e360e21b8152600490fd5b6001600160a01b0381811615612180576001546001600160801b0390600090608081901c908316146130155750600154818160801c911681146130035760001901818116916000612fb7612f9c856001600160801b03166000526002602052604060002090565b54946001600160801b03166000526002602052604060002090565b55600154916001600160801b03199060801b16911617600155905b81600052600b602052604060002054169182612ff1576122399261297d565b60405163119b4fd360e11b8152600490fd5b6040516375e52f4f60e01b8152600490fd5b905060065460001980821461305f5760018201806006551461304d576001600160ff1b010190600160ff1b8210612a50575090612fd2565b60405163303b682f60e01b8152600490fd5b634e487b7160e01b83526011600452602483fd5b6001600160a01b03168015612192576000818152602090600c825260409081812093845460001995868201918211612b6b57906130af91612965565b90549060031b1c93848352600981528383206001600160601b0360a01b8154169055818352600c81528383208054908782019182116131fc57906130f291612965565b90549060031b1c8581036131cc575b50818352600c8152838320805480156131b85791600b918888969594019061312c612b078383612965565b558484525281848120557fddf252ad1be2c89b69c2b068fc378daa952ba7f163c4a11628f55a4df523b3ef8280a4600154926001600160801b039081851601169260801c83146131a85750613194826001600160801b03166000526002602052604060002090565b556001600160801b03196001541617600155565b51638acb5f2760e01b8152600490fd5b634e487b7160e01b85526031600452602485fd5b6131f690868552600b83528585205460a01c90848652600c8452612b60816129eb848a8a20612965565b38613101565b634e487b7160e01b85526011600452602485fdfe1b6847dc741a1b0cd08d278845f9d819d87b734759afb55fe2de5cb82a9ae672a2646970667358221220bde407d318602360b480f91916d7d74b9384bc96ec0b7b33a32e53ed5e1d790064736f6c6343000817003345117a726ea4f344045dc210793664a28d2d320b7e03f6bffdae553d24c3586c9d8f7706ea1113d1a167b526eca956215946dd36cc7df39eb16180222d8b5df7c2575a0e9e593c00f959f8c92f12db2869c3395a3b0502d05e2516446f71f85bddf252ad1be2c89b69c2b068fc378daa952ba7f163c4a11628f55a4df523b3ef",
  "linkReferences": {},
  "deployedLinkReferences": {}
}