{
  "_format": "hh-sol-artifact-1",
  "contractName": "ERC404Tax",
  "sourceName": "contracts/erc404/examples/ERC404Tax.sol",
  "abi": [
    {
      "inputs": [
        {
          "internalType": "string",
          "name": "name_",
          "type": "string"
        },
        {
          "internalType": "string",
          "name": "symbol_",
          "type": "string"
        },
        {
          "internalType": "uint8",
          "name": "decimals_",
          "type": "uint8"
        },
        {
          "internalType": "uint256",
          "name": "maxTotalSupplyERC721_",
          "type": "uint256"
        },
        {
          "internalType": "address",
          "name": "initialOwner_",
          "type": "address"
        },
        {
          "internalType": "address",
          "name": "initialMintRecipient_",
          "type": "address"
        },
        {
          "internalType": "address",
          "name": "uniswapV2Router_",
          "type": "address"
        },
        {
          "internalType": "address",
          "name": "uniswapV4Router_",
          "type": "address"
        },
        {
          "internalType": "uint256",
          "name": "buyFee_",
          "type": "uint256"
        },
        {
          "internalType": "uint256",
          "name": "sellFee_",
          "type": "uint256"
        }
      ],
      "stateMutability": "nonpayable",
      "type": "constructor"
    },
    {
      "inputs": [],
      "name": "AlreadyExists",
      "type": "error"
    },
    {
      "inputs": [],
      "name": "DecimalsTooLow",
      "type": "error"
    },
    {
      "inputs": [],
      "name": "InsufficientAllowance",
      "type": "error"
    },
    {
      "inputs": [],
      "name": "InvalidApproval",
      "type": "error"
    },
    {
      "inputs": [],
      "name": "InvalidExemption",
      "type": "error"
    },
    {
      "inputs": [],
      "name": "InvalidOperator",
      "type": "error"
    },
    {
      "inputs": [],
      "name": "InvalidRecipient",
      "type": "error"
    },
    {
      "inputs": [],
      "name": "InvalidSender",
      "type": "error"
    },
    {
      "inputs": [],
      "name": "InvalidSigner",
      "type": "error"
    },
    {
      "inputs": [],
      "name": "InvalidSpender",
      "type": "error"
    },
    {
      "inputs": [],
      "name": "InvalidTokenId",
      "type": "error"
    },
    {
      "inputs": [],
      "name": "MintLimitReached",
      "type": "error"
    },
    {
      "inputs": [],
      "name": "NotFound",
      "type": "error"
    },
    {
      "inputs": [
        {
          "internalType": "address",
          "name": "owner",
          "type": "address"
        }
      ],
      "name": "OwnableInvalidOwner",
      "type": "error"
    },
    {
      "inputs": [
        {
          "internalType": "address",
          "name": "account",
          "type": "address"
        }
      ],
      "name": "OwnableUnauthorizedAccount",
      "type": "error"
    },
    {
      "inputs": [],
      "name": "OwnedIndexOverflow",
      "type": "error"
    },
    {
      "inputs": [],
      "name": "PermitDeadlineExpired",
      "type": "error"
    },
    {
      "inputs": [],
      "name": "QueueEmpty",
      "type": "error"
    },
    {
      "inputs": [],
      "name": "QueueFull",
      "type": "error"
    },
    {
      "inputs": [],
      "name": "QueueOutOfBounds",
      "type": "error"
    },
    {
      "inputs": [],
      "name": "RecipientIsERC721TransferExempt",
      "type": "error"
    },
    {
      "inputs": [],
      "name": "Unauthorized",
      "type": "error"
    },
    {
      "inputs": [],
      "name": "UnsafeRecipient",
      "type": "error"
    },
    {
      "anonymous": false,
      "inputs": [
        {
          "indexed": true,
          "internalType": "address",
          "name": "owner",
          "type": "address"
        },
        {
          "indexed": true,
          "internalType": "address",
          "name": "spender",
          "type": "address"
        },
        {
          "indexed": false,
          "internalType": "uint256",
          "name": "value",
          "type": "uint256"
        }
      ],
      "name": "Approval",
      "type": "event"
    },
    {
      "anonymous": false,
      "inputs": [
        {
          "indexed": true,
          "internalType": "address",
          "name": "owner",
          "type": "address"
        },
        {
          "indexed": true,
          "internalType": "address",
          "name": "spender",
          "type": "address"
        },
        {
          "indexed": true,
          "internalType": "uint256",
          "name": "id",
          "type": "uint256"
        }
      ],
      "name": "Approval",
      "type": "event"
    },
    {
      "anonymous": false,
      "inputs": [
        {
          "indexed": true,
          "internalType": "address",
          "name": "owner",
          "type": "address"
        },
        {
          "indexed": true,
          "internalType": "address",
          "name": "operator",
          "type": "address"
        },
        {
          "indexed": false,
          "internalType": "bool",
          "name": "approved",
          "type": "bool"
        }
      ],
      "name": "ApprovalForAll",
      "type": "event"
    },
    {
      "anonymous": false,
      "inputs": [
        {
          "indexed": false,
          "internalType": "uint256",
          "name": "oldFee",
          "type": "uint256"
        },
        {
          "indexed": false,
          "internalType": "uint256",
          "name": "newFee",
          "type": "uint256"
        }
      ],
      "name": "BuyFeeUpdated",
      "type": "event"
    },
    {
      "anonymous": false,
      "inputs": [
        {
          "indexed": true,
          "internalType": "address",
          "name": "account",
          "type": "address"
        },
        {
          "indexed": false,
          "internalType": "bool",
          "name": "value",
          "type": "bool"
        }
      ],
      "name": "ERC721TransferExemptionUpdated",
      "type": "event"
    },
    {
      "anonymous": false,
      "inputs": [
        {
          "indexed": true,
          "internalType": "address",
          "name": "account",
          "type": "address"
        },
        {
          "indexed": false,
          "internalType": "bool",
          "name": "isExcluded",
          "type": "bool"
        }
      ],
      "name": "ExcludeFromFees",
      "type": "event"
    },
    {
      "anonymous": false,
      "inputs": [
        {
          "indexed": true,
          "internalType": "address",
          "name": "from",
          "type": "address"
        },
        {
          "indexed": false,
          "internalType": "uint256",
          "name": "amount",
          "type": "uint256"
        },
        {
          "indexed": false,
          "internalType": "uint256",
          "name": "fee",
          "type": "uint256"
        }
      ],
      "name": "FeeCollected",
      "type": "event"
    },
    {
      "anonymous": false,
      "inputs": [
        {
          "indexed": true,
          "internalType": "address",
          "name": "newWallet",
          "type": "address"
        },
        {
          "indexed": true,
          "internalType": "address",
          "name": "oldWallet",
          "type": "address"
        }
      ],
      "name": "FeeWalletUpdated",
      "type": "event"
    },
    {
      "anonymous": false,
      "inputs": [
        {
          "indexed": false,
          "internalType": "uint256",
          "name": "amount",
          "type": "uint256"
        }
      ],
      "name": "ManualSwapExecuted",
      "type": "event"
    },
    {
      "anonymous": false,
      "inputs": [
        {
          "indexed": true,
          "internalType": "address",
          "name": "previousOwner",
          "type": "address"
        },
        {
          "indexed": true,
          "internalType": "address",
          "name": "newOwner",
          "type": "address"
        }
      ],
      "name": "OwnershipTransferred",
      "type": "event"
    },
    {
      "anonymous": false,
      "inputs": [
        {
          "indexed": false,
          "internalType": "uint256",
          "name": "oldFee",
          "type": "uint256"
        },
        {
          "indexed": false,
          "internalType": "uint256",
          "name": "newFee",
          "type": "uint256"
        }
      ],
      "name": "SellFeeUpdated",
      "type": "event"
    },
    {
      "anonymous": false,
      "inputs": [
        {
          "indexed": true,
          "internalType": "address",
          "name": "pair",
          "type": "address"
        },
        {
          "indexed": true,
          "internalType": "bool",
          "name": "value",
          "type": "bool"
        }
      ],
      "name": "SetAutomatedMarketMakerPair",
      "type": "event"
    },
    {
      "anonymous": false,
      "inputs": [
        {
          "indexed": false,
          "internalType": "uint256",
          "name": "tokensSwapped",
          "type": "uint256"
        },
        {
          "indexed": false,
          "internalType": "uint256",
          "name": "ethReceived",
          "type": "uint256"
        }
      ],
      "name": "SwapBackExecuted",
      "type": "event"
    },
    {
      "anonymous": false,
      "inputs": [
        {
          "indexed": false,
          "internalType": "uint256",
          "name": "tokensSwapped",
          "type": "uint256"
        },
        {
          "indexed": false,
          "internalType": "uint256",
          "name": "ethReceived",
          "type": "uint256"
        }
      ],
      "name": "SwapExecuted",
      "type": "event"
    },
    {
      "anonymous": false,
      "inputs": [
        {
          "indexed": false,
          "internalType": "uint256",
          "name": "tokensAttempted",
          "type": "uint256"
        }
      ],
      "name": "SwapFailed",
      "type": "event"
    },
    {
      "anonymous": false,
      "inputs": [
        {
          "indexed": true,
          "internalType": "address",
          "name": "from",
          "type": "address"
        },
        {
          "indexed": true,
          "internalType": "address",
          "name": "to",
          "type": "address"
        },
        {
          "indexed": false,
          "internalType": "uint256",
          "name": "amount",
          "type": "uint256"
        }
      ],
      "name": "Transfer",
      "type": "event"
    },
    {
      "anonymous": false,
      "inputs": [
        {
          "indexed": true,
          "internalType": "address",
          "name": "from",
          "type": "address"
        },
        {
          "indexed": true,
          "internalType": "address",
          "name": "to",
          "type": "address"
        },
        {
          "indexed": true,
          "internalType": "uint256",
          "name": "id",
          "type": "uint256"
        }
      ],
      "name": "Transfer",
      "type": "event"
    },
    {
      "inputs": [],
      "name": "DOMAIN_SEPARATOR",
      "outputs": [
        {
          "internalType": "bytes32",
          "name": "",
          "type": "bytes32"
        }
      ],
      "stateMutability": "view",
      "type": "function"
    },
    {
      "inputs": [],
      "name": "ID_ENCODING_PREFIX",
      "outputs": [
        {
          "internalType": "uint256",
          "name": "",
          "type": "uint256"
        }
      ],
      "stateMutability": "view",
      "type": "function"
    },
    {
      "inputs": [
        {
          "internalType": "address",
          "name": "",
          "type": "address"
        },
        {
          "internalType": "address",
          "name": "",
          "type": "address"
        }
      ],
      "name": "allowance",
      "outputs": [
        {
          "internalType": "uint256",
          "name": "",
          "type": "uint256"
        }
      ],
      "stateMutability": "view",
      "type": "function"
    },
    {
      "inputs": [
        {
          "internalType": "address",
          "name": "spender_",
          "type": "address"
        },
        {
          "internalType": "uint256",
          "name": "valueOrId_",
          "type": "uint256"
        }
      ],
      "name": "approve",
      "outputs": [
        {
          "internalType": "bool",
          "name": "",
          "type": "bool"
        }
      ],
      "stateMutability": "nonpayable",
      "type": "function"
    },
    {
      "inputs": [
        {
          "internalType": "address",
          "name": "",
          "type": "address"
        }
      ],
      "name": "automatedMarketMakerPairs",
      "outputs": [
        {
          "internalType": "bool",
          "name": "",
          "type": "bool"
        }
      ],
      "stateMutability": "view",
      "type": "function"
    },
    {
      "inputs": [
        {
          "internalType": "address",
          "name": "",
          "type": "address"
        }
      ],
      "name": "balanceOf",
      "outputs": [
        {
          "internalType": "uint256",
          "name": "",
          "type": "uint256"
        }
      ],
      "stateMutability": "view",
      "type": "function"
    },
    {
      "inputs": [],
      "name": "buyFee",
      "outputs": [
        {
          "internalType": "uint256",
          "name": "",
          "type": "uint256"
        }
      ],
      "stateMutability": "view",
      "type": "function"
    },
    {
      "inputs": [],
      "name": "deadAddress",
      "outputs": [
        {
          "internalType": "address",
          "name": "",
          "type": "address"
        }
      ],
      "stateMutability": "view",
      "type": "function"
    },
    {
      "inputs": [],
      "name": "decimals",
      "outputs": [
        {
          "internalType": "uint8",
          "name": "",
          "type": "uint8"
        }
      ],
      "stateMutability": "view",
      "type": "function"
    },
    {
      "inputs": [
        {
          "internalType": "address",
          "name": "spender_",
          "type": "address"
        },
        {
          "internalType": "uint256",
          "name": "value_",
          "type": "uint256"
        }
      ],
      "name": "erc20Approve",
      "outputs": [
        {
          "internalType": "bool",
          "name": "",
          "type": "bool"
        }
      ],
      "stateMutability": "nonpayable",
      "type": "function"
    },
    {
      "inputs": [
        {
          "internalType": "address",
          "name": "owner_",
          "type": "address"
        }
      ],
      "name": "erc20BalanceOf",
      "outputs": [
        {
          "internalType": "uint256",
          "name": "",
          "type": "uint256"
        }
      ],
      "stateMutability": "view",
      "type": "function"
    },
    {
      "inputs": [],
      "name": "erc20TotalSupply",
      "outputs": [
        {
          "internalType": "uint256",
          "name": "",
          "type": "uint256"
        }
      ],
      "stateMutability": "view",
      "type": "function"
    },
    {
      "inputs": [
        {
          "internalType": "address",
          "name": "from_",
          "type": "address"
        },
        {
          "internalType": "address",
          "name": "to_",
          "type": "address"
        },
        {
          "internalType": "uint256",
          "name": "value_",
          "type": "uint256"
        }
      ],
      "name": "erc20TransferFrom",
      "outputs": [
        {
          "internalType": "bool",
          "name": "",
          "type": "bool"
        }
      ],
      "stateMutability": "nonpayable",
      "type": "function"
    },
    {
      "inputs": [
        {
          "internalType": "address",
          "name": "spender_",
          "type": "address"
        },
        {
          "internalType": "uint256",
          "name": "id_",
          "type": "uint256"
        }
      ],
      "name": "erc721Approve",
      "outputs": [],
      "stateMutability": "nonpayable",
      "type": "function"
    },
    {
      "inputs": [
        {
          "internalType": "address",
          "name": "owner_",
          "type": "address"
        }
      ],
      "name": "erc721BalanceOf",
      "outputs": [
        {
          "internalType": "uint256",
          "name": "",
          "type": "uint256"
        }
      ],
      "stateMutability": "view",
      "type": "function"
    },
    {
      "inputs": [],
      "name": "erc721TotalSupply",
      "outputs": [
        {
          "internalType": "uint256",
          "name": "",
          "type": "uint256"
        }
      ],
      "stateMutability": "view",
      "type": "function"
    },
    {
      "inputs": [
        {
          "internalType": "address",
          "name": "target_",
          "type": "address"
        }
      ],
      "name": "erc721TransferExempt",
      "outputs": [
        {
          "internalType": "bool",
          "name": "",
          "type": "bool"
        }
      ],
      "stateMutability": "view",
      "type": "function"
    },
    {
      "inputs": [
        {
          "internalType": "address",
          "name": "from_",
          "type": "address"
        },
        {
          "internalType": "address",
          "name": "to_",
          "type": "address"
        },
        {
          "internalType": "uint256",
          "name": "id_",
          "type": "uint256"
        }
      ],
      "name": "erc721TransferFrom",
      "outputs": [],
      "stateMutability": "nonpayable",
      "type": "function"
    },
    {
      "inputs": [
        {
          "internalType": "address",
          "name": "account",
          "type": "address"
        },
        {
          "internalType": "bool",
          "name": "excluded",
          "type": "bool"
        }
      ],
      "name": "excludeFromFees",
      "outputs": [],
      "stateMutability": "nonpayable",
      "type": "function"
    },
    {
      "inputs": [],
      "name": "feeWallet",
      "outputs": [
        {
          "internalType": "address",
          "name": "",
          "type": "address"
        }
      ],
      "stateMutability": "view",
      "type": "function"
    },
    {
      "inputs": [
        {
          "internalType": "uint256",
          "name": "",
          "type": "uint256"
        }
      ],
      "name": "getApproved",
      "outputs": [
        {
          "internalType": "address",
          "name": "",
          "type": "address"
        }
      ],
      "stateMutability": "view",
      "type": "function"
    },
    {
      "inputs": [],
      "name": "getERC721QueueLength",
      "outputs": [
        {
          "internalType": "uint256",
          "name": "",
          "type": "uint256"
        }
      ],
      "stateMutability": "view",
      "type": "function"
    },
    {
      "inputs": [
        {
          "internalType": "uint256",
          "name": "start_",
          "type": "uint256"
        },
        {
          "internalType": "uint256",
          "name": "count_",
          "type": "uint256"
        }
      ],
      "name": "getERC721TokensInQueue",
      "outputs": [
        {
          "internalType": "uint256[]",
          "name": "",
          "type": "uint256[]"
        }
      ],
      "stateMutability": "view",
      "type": "function"
    },
    {
      "inputs": [
        {
          "internalType": "address",
          "name": "",
          "type": "address"
        },
        {
          "internalType": "address",
          "name": "",
          "type": "address"
        }
      ],
      "name": "isApprovedForAll",
      "outputs": [
        {
          "internalType": "bool",
          "name": "",
          "type": "bool"
        }
      ],
      "stateMutability": "view",
      "type": "function"
    },
    {
      "inputs": [
        {
          "internalType": "address",
          "name": "account",
          "type": "address"
        }
      ],
      "name": "isExcludedFromFees",
      "outputs": [
        {
          "internalType": "bool",
          "name": "",
          "type": "bool"
        }
      ],
      "stateMutability": "view",
      "type": "function"
    },
    {
      "inputs": [],
      "name": "minted",
      "outputs": [
        {
          "internalType": "uint256",
          "name": "",
          "type": "uint256"
        }
      ],
      "stateMutability": "view",
      "type": "function"
    },
    {
      "inputs": [],
      "name": "name",
      "outputs": [
        {
          "internalType": "string",
          "name": "",
          "type": "string"
        }
      ],
      "stateMutability": "view",
      "type": "function"
    },
    {
      "inputs": [
        {
          "internalType": "address",
          "name": "",
          "type": "address"
        }
      ],
      "name": "nonces",
      "outputs": [
        {
          "internalType": "uint256",
          "name": "",
          "type": "uint256"
        }
      ],
      "stateMutability": "view",
      "type": "function"
    },
    {
      "inputs": [
        {
          "internalType": "address",
          "name": "owner_",
          "type": "address"
        }
      ],
      "name": "owned",
      "outputs": [
        {
          "internalType": "uint256[]",
          "name": "",
          "type": "uint256[]"
        }
      ],
      "stateMutability": "view",
      "type": "function"
    },
    {
      "inputs": [],
      "name": "owner",
      "outputs": [
        {
          "internalType": "address",
          "name": "",
          "type": "address"
        }
      ],
      "stateMutability": "view",
      "type": "function"
    },
    {
      "inputs": [
        {
          "internalType": "uint256",
          "name": "id_",
          "type": "uint256"
        }
      ],
      "name": "ownerOf",
      "outputs": [
        {
          "internalType": "address",
          "name": "erc721Owner",
          "type": "address"
        }
      ],
      "stateMutability": "view",
      "type": "function"
    },
    {
      "inputs": [
        {
          "internalType": "address",
          "name": "owner_",
          "type": "address"
        },
        {
          "internalType": "address",
          "name": "spender_",
          "type": "address"
        },
        {
          "internalType": "uint256",
          "name": "value_",
          "type": "uint256"
        },
        {
          "internalType": "uint256",
          "name": "deadline_",
          "type": "uint256"
        },
        {
          "internalType": "uint8",
          "name": "v_",
          "type": "uint8"
        },
        {
          "internalType": "bytes32",
          "name": "r_",
          "type": "bytes32"
        },
        {
          "internalType": "bytes32",
          "name": "s_",
          "type": "bytes32"
        }
      ],
      "name": "permit",
      "outputs": [],
      "stateMutability": "nonpayable",
      "type": "function"
    },
    {
      "inputs": [],
      "name": "renounceOwnership",
      "outputs": [],
      "stateMutability": "nonpayable",
      "type": "function"
    },
    {
      "inputs": [
        {
          "internalType": "address",
          "name": "from_",
          "type": "address"
        },
        {
          "internalType": "address",
          "name": "to_",
          "type": "address"
        },
        {
          "internalType": "uint256",
          "name": "id_",
          "type": "uint256"
        }
      ],
      "name": "safeTransferFrom",
      "outputs": [],
      "stateMutability": "nonpayable",
      "type": "function"
    },
    {
      "inputs": [
        {
          "internalType": "address",
          "name": "from_",
          "type": "address"
        },
        {
          "internalType": "address",
          "name": "to_",
          "type": "address"
        },
        {
          "internalType": "uint256",
          "name": "id_",
          "type": "uint256"
        },
        {
          "internalType": "bytes",
          "name": "data_",
          "type": "bytes"
        }
      ],
      "name": "safeTransferFrom",
      "outputs": [],
      "stateMutability": "nonpayable",
      "type": "function"
    },
    {
      "inputs": [],
      "name": "sellFee",
      "outputs": [
        {
          "internalType": "uint256",
          "name": "",
          "type": "uint256"
        }
      ],
      "stateMutability": "view",
      "type": "function"
    },
    {
      "inputs": [
        {
          "internalType": "address",
          "name": "operator_",
          "type": "address"
        },
        {
          "internalType": "bool",
          "name": "approved_",
          "type": "bool"
        }
      ],
      "name": "setApprovalForAll",
      "outputs": [],
      "stateMutability": "nonpayable",
      "type": "function"
    },
    {
      "inputs": [
        {
          "internalType": "address",
          "name": "pair",
          "type": "address"
        },
        {
          "internalType": "bool",
          "name": "value",
          "type": "bool"
        }
      ],
      "name": "setAutomatedMarketMakerPair",
      "outputs": [],
      "stateMutability": "nonpayable",
      "type": "function"
    },
    {
      "inputs": [
        {
          "internalType": "uint256",
          "name": "newBuyFee",
          "type": "uint256"
        }
      ],
      "name": "setBuyFee",
      "outputs": [],
      "stateMutability": "nonpayable",
      "type": "function"
    },
    {
      "inputs": [
        {
          "internalType": "address",
          "name": "newFeeWallet",
          "type": "address"
        }
      ],
      "name": "setFeeWallet",
      "outputs": [],
      "stateMutability": "nonpayable",
      "type": "function"
    },
    {
      "inputs": [
        {
          "internalType": "bool",
          "name": "state_",
          "type": "bool"
        }
      ],
      "name": "setSelfERC721TransferExempt",
      "outputs": [],
      "stateMutability": "nonpayable",
      "type": "function"
    },
    {
      "inputs": [
        {
          "internalType": "uint256",
          "name": "newSellFee",
          "type": "uint256"
        }
      ],
      "name": "setSellFee",
      "outputs": [],
      "stateMutability": "nonpayable",
      "type": "function"
    },
    {
      "inputs": [
        {
          "internalType": "bytes4",
          "name": "interfaceId",
          "type": "bytes4"
        }
      ],
      "name": "supportsInterface",
      "outputs": [
        {
          "internalType": "bool",
          "name": "",
          "type": "bool"
        }
      ],
      "stateMutability": "view",
      "type": "function"
    },
    {
      "inputs": [
        {
          "internalType": "uint256",
          "name": "amount",
          "type": "uint256"
        }
      ],
      "name": "swapTokensManually",
      "outputs": [],
      "stateMutability": "nonpayable",
      "type": "function"
    },
    {
      "inputs": [],
      "name": "symbol",
      "outputs": [
        {
          "internalType": "string",
          "name": "",
          "type": "string"
        }
      ],
      "stateMutability": "view",
      "type": "function"
    },
    {
      "inputs": [
        {
          "internalType": "uint256",
          "name": "id_",
          "type": "uint256"
        }
      ],
      "name": "tokenURI",
      "outputs": [
        {
          "internalType": "string",
          "name": "",
          "type": "string"
        }
      ],
      "stateMutability": "pure",
      "type": "function"
    },
    {
      "inputs": [],
      "name": "totalSupply",
      "outputs": [
        {
          "internalType": "uint256",
          "name": "",
          "type": "uint256"
        }
      ],
      "stateMutability": "view",
      "type": "function"
    },
    {
      "inputs": [
        {
          "internalType": "address",
          "name": "to_",
          "type": "address"
        },
        {
          "internalType": "uint256",
          "name": "value_",
          "type": "uint256"
        }
      ],
      "name": "transfer",
      "outputs": [
        {
          "internalType": "bool",
          "name": "",
          "type": "bool"
        }
      ],
      "stateMutability": "nonpayable",
      "type": "function"
    },
    {
      "inputs": [
        {
          "internalType": "address",
          "name": "from_",
          "type": "address"
        },
        {
          "internalType": "address",
          "name": "to_",
          "type": "address"
        },
        {
          "internalType": "uint256",
          "name": "valueOrId_",
          "type": "uint256"
        }
      ],
      "name": "transferFrom",
      "outputs": [
        {
          "internalType": "bool",
          "name": "",
          "type": "bool"
        }
      ],
      "stateMutability": "nonpayable",
      "type": "function"
    },
    {
      "inputs": [
        {
          "internalType": "address",
          "name": "newOwner",
          "type": "address"
        }
      ],
      "name": "transferOwnership",
      "outputs": [],
      "stateMutability": "nonpayable",
      "type": "function"
    },
    {
      "inputs": [],
      "name": "uniswapV2Pair",
      "outputs": [
        {
          "internalType": "address",
          "name": "",
          "type": "address"
        }
      ],
      "stateMutability": "view",
      "type": "function"
    },
    {
      "inputs": [],
      "name": "uniswapV2Router",
      "outputs": [
        {
          "internalType": "contract IUniswapV2Router02",
          "name": "",
          "type": "address"
        }
      ],
      "stateMutability": "view",
      "type": "function"
    },
    {
      "inputs": [],
      "name": "units",
      "outputs": [
        {
          "internalType": "uint256",
          "name": "",
          "type": "uint256"
        }
      ],
      "stateMutability": "view",
      "type": "function"
    },
    {
      "stateMutability": "payable",
      "type": "receive"
    }
  ],
  "bytecode": "0x610120806040523462000d15576200451c8038038091620000218285620011c8565b833981016101408282031262000d155781516001600160401b03811162000d15578162000050918401620011ec565b602083015190916001600160401b03821162000d155762000073918401620011ec565b60408301519260ff8416840362000d1557606081015192620000986080830162001262565b90620000a760a0840162001262565b95620000b660c0850162001262565b90620000c560e0860162001262565b956101206101008701519601519360018060a01b03861615620011af57600080546001600160a01b038881166001600160a01b0319831681178455929116907f8be0079c531659141344cd1fd0a4f28419497f9722a3daafe3b4186f6b6457e09080a38051906001600160401b03821162000a325781906200014960035462001277565b601f81116200114e575b50602090601f8311600114620010d057600092620010c4575b50508160011b916000199060031b1c1916176003555b8051906001600160401b03821162000a32578190620001a360045462001277565b601f811162001052575b50602090601f831160011462000fc35760009262000fb7575b50508160011b916000199060031b1c1916176004555b601260ff82161062000fa55780608052604d60ff82161162000a1c5760ff16600a0a60a0524660c052604051600354816000620002198362001277565b808352926001811690811562000f84575060011462000f31575b6200024192500382620011c8565b60208151910120604051907f8b73c3c69bb8fe3d512ecc4cf759cc79239f7b179b0ffacaa9a75d522b39400f602083015260408201527fc89efdaa54c0f20c7adf612882df0950f5a951637e0307cdcb4c672f298b8bc660608201524660808201523060a082015260a081528060c081011060018060401b0360c08301111762000a325760c081016040526020815191012060e052620002e181620012b4565b60405163c45a015560e01b81526020816004816001600160a01b0386165afa90811562000d235760009162000eef575b506040516315ab88c960e31b8152906020826004816001600160a01b0387165afa91821562000d235760009262000eab575b506001600160a01b03821630101562000ea45730915b6040516001600160601b0319606094851b8116602083015291841b9091166034820152602881529182018083116001600160401b039091111762000a325760608281016040819052835160208501207fff0000000000000000000000000000000000000000000000000000000000000060808601529290911b6001600160601b031916608184015260958301919091527f96e8ac4277198ff8b6f785478aa9a39f403cb768dd02cbee326c3e7da348845f60b5830152605581526001600160401b0360e0830190811191111762000a325760e08101604052606081015160809091012062000450906001600160a01b0316620012b4565b600a841162000e6c57600a821162000e33576001600160a01b0381161562000dfd576001600160a01b0387161562000dc4576001600160a01b03811661010081905260405163c45a015560e01b81529190602090839060049082905afa91821562000d235760009262000d7b575b506040516315ab88c960e31b815290602090829060049082906001600160a01b03165afa90811562000d235760009162000d2f575b506040516364e329cb60e11b81523060048201526001600160a01b0391821660248201529160209183916044918391600091165af190811562000d235760009162000cdc575b5060018060a01b0316928360018060a01b0319600f541617600f558360005260146020526040600020600160ff198254161790556001604051947fffa9187bf1f18bf477bd0ea1bcbb64e93b6a98132473929edfce215cd9b16fab600080a3601155601255601080546001600160a01b0319166001600160a01b0392831617905560005416330362000cc757503060005260136020526040600020600160ff1982541617905560405160018152600080516020620044bc83398151915260203092a2600054336001600160a01b039091160362000caf5761dead60005260136020526040600020600160ff1982541617905561dead600080516020620044bc833981519152602060405160018152a2600054336001600160a01b039091160362000caf576001600160a01b038316600081815260136020908152604091829020805460ff191660019081179091559151918252600080516020620044bc83398151915291a2600f54620006b5906001600160a01b0316620012b4565b620006c030620012b4565b61dead600052600c60205260406000205460005b81811062000ad357505061dead600052600d6020527fdc7fafdc41998a74ecacb8f8bd877011aba1f1d03a3a0d37a2e7879a393b1d6a805460ff191660011790556200072b906200072584620012b4565b620012b4565b60a05190808281020482148115171562000a1c5760055491600160ff1b6200075683830285620014c6565b1162000aaf5760076020526001600160a01b0384166000908152604090205492620007859083830290620014c6565b6005556001600160a01b0384166000818152600760209081526040808320805496909502958601909455925193845290929091600080516020620044fc83398151915291a36001600160a01b0382166000908152600d602052604090205460ff161562000855575b604051612f16908162001586823960805181611558015260a051818181610dae0152818161112901528181611f34015281816129b401528181612a3a0152612a9d015260c05181611ac8015260e05181611aef0152610100518181816115e901526121110152f35b60076020526200087d6200087260406000205460a05190620014d4565b9160a05190620014d4565b810390811162000a1c5760005b818110620008995750620007ed565b6001600160a01b0383161562000ac157600154608081901c6001600160801b039091161462000a6c57600154608081901c6001600160801b0382161462000a5a5760001960809190911c016001600160801b0381166000908152600260205260408120805492919055600180546001600160801b031660809290921b6001600160801b031916919091179055905b6000828152600b60205260409020546001600160a01b0316918262000a48576000818152600b6020908152604080832080546001600160a01b0319166001600160a01b038a169081019091558352600c909152902080546801000000000000000081101562000a3257620009a781620009c09360018694018155620014f5565b90919082549060031b91821b91600019901b1916179055565b6001600160a01b0385166000908152600c6020526040902054926000198401841062000a1c57620009f8600194600019018362001524565b838060a01b03861690600080516020620044fc833981519152600080a4016200088a565b634e487b7160e01b600052601160045260246000fd5b634e487b7160e01b600052604160045260246000fd5b60405163119b4fd360e11b8152600490fd5b6040516375e52f4f60e01b8152600490fd5b600654600019811462000a1c5760018101806006556000191462000aaf576001600160ff1b018101600160ff1b1162000a1c576001600160ff1b01019062000927565b60405163303b682f60e01b8152600490fd5b604051634e46966960e11b8152600490fd5b61dead600052600c6020526000805160206200449c8339815191528054906000198201821062000a1c5762000b0d916000190190620014f5565b90549060031b1c90816000526009602052604060002060018060a01b0319815416905561dead600052600c60205260406000208054908160001981011162000a1c5762000b5f916000190190620014f5565b90549060031b1c82810362000c6a575b5061dead600052600c6020526000805160206200449c8339815191528054801562000c5457600019019062000bba62000ba98383620014f5565b8154906000199060031b1b19169055565b5581600052600b6020526000604081205581600061dead600080516020620044fc8339815191528280a46001546001600160801b0390818116600019018216608082901c1462000c425760001990821601166001600160801b038116600090815260026020526040902092909255600180546001600160801b031916909217825501620006d4565b604051638acb5f2760e01b8152600490fd5b634e487b7160e01b600052603160045260246000fd5b62000ca89083600052600b60205260406000205460a01c9061dead600052600c60205262000ca281620009a7846040600020620014f5565b62001524565b3862000b6f565b60405163118cdaa760e01b8152336004820152602490fd5b63118cdaa760e01b8152336004820152602490fd5b90506020813d60201162000d1a575b8162000cfa60209383620011c8565b8101031262000d155762000d0e9062001262565b3862000539565b600080fd5b3d915062000ceb565b6040513d6000823e3d90fd5b90506020813d60201162000d72575b8162000d4d60209383620011c8565b8101031262000d1557600091604462000d6860209362001262565b92505091620004f3565b3d915062000d3e565b9091506020813d60201162000dbb575b8162000d9a60209383620011c8565b8101031262000d1557602062000db260049262001262565b929150620004be565b3d915062000d8b565b60405162461bcd60e51b8152602060048201526011602482015270125b9d985b1a59081c9958da5c1a595b9d607a1b6044820152606490fd5b60405162461bcd60e51b815260206004820152600e60248201526d24b73b30b634b2103937baba32b960911b6044820152606490fd5b60405162461bcd60e51b81526020600482015260116024820152700a6cad8d840cccaca40e8dede40d0d2ced607b1b6044820152606490fd5b60405162461bcd60e51b815260206004820152601060248201526f084eaf240cccaca40e8dede40d0d2ced60831b6044820152606490fd5b3062000359565b9091506020813d60201162000ee6575b8162000eca60209383620011c8565b8101031262000d155762000ede9062001262565b903862000343565b3d915062000ebb565b90506020813d60201162000f28575b8162000f0d60209383620011c8565b8101031262000d155762000f219062001262565b3862000311565b3d915062000efe565b50600360009081529091600080516020620044dc8339815191525b81831062000f67575050906020620002419282010162000233565b602091935080600191548385880101520191019091839262000f4c565b602092506200024194915060ff191682840152151560051b82010162000233565b6040516398790fd560e01b8152600490fd5b015190503880620001c6565b6004600090815293507f8a35acfbc15ff81a39ae7d344fd709f28e8600b4aa8c65c6b64bfe7fe36bd19b91905b601f198416851062001036576001945083601f198116106200101c575b505050811b01600455620001dc565b015160001960f88460031b161c191690553880806200100d565b8181015183556020948501946001909301929091019062000ff0565b60046000529091507f8a35acfbc15ff81a39ae7d344fd709f28e8600b4aa8c65c6b64bfe7fe36bd19b601f840160051c810160208510620010bc575b90849392915b601f830160051c82018110620010ac575050620001ad565b6000815585945060010162001094565b50806200108e565b0151905038806200016c565b600360009081529350600080516020620044dc83398151915291905b601f198416851062001132576001945083601f1981161062001118575b505050811b0160035562000182565b015160001960f88460031b161c1916905538808062001109565b81810151835560209485019460019093019290910190620010ec565b6003600052909150600080516020620044dc833981519152601f840160051c810160208510620011a7575b90849392915b601f830160051c820181106200119757505062000153565b600081558594506001016200117f565b508062001179565b604051631e4fbdf760e01b815260006004820152602490fd5b601f909101601f19168101906001600160401b0382119082101762000a3257604052565b919080601f8401121562000d155782516001600160401b03811162000a3257602090604051926200122783601f19601f8501160185620011c8565b81845282828701011162000d155760005b8181106200124e57508260009394955001015290565b858101830151848201840152820162001238565b51906001600160a01b038216820362000d1557565b90600182811c92168015620012a9575b60208310146200129357565b634e487b7160e01b600052602260045260246000fd5b91607f169162001287565b6001600160a01b0316801580620014b457600090828252600c92602091600c83526040948585205491855b838110620013005750505090835250600d905220805460ff19166001179055565b81620014a357848752828652878720805460001992918382019182116200148f57906200132d91620014f5565b9054600391821b1c808a52600989528a8a2080546001600160a01b0319169055878a528589528a8a20805491949291808401919082116200147b5791620013778b928d94620014f5565b9054911b1c898d87830362001444575b509291505052848852898920805480156200143057820190620013af62000ba98383620014f5565b55828952600b8852888a812055828988600080516020620044fc8339815191528280a460019283549160018060801b039081841601169160801c82146200141f576001600160801b03821660009081526002602052604090205582546001600160801b03191617825501620012df565b8a51638acb5f2760e01b8152600490fd5b634e487b7160e01b8b52603160045260248bfd5b620009a762000ca2928492878b620014709952600b88528d8282205460a01c98899483525220620014f5565b888838898d62001387565b634e487b7160e01b8c52601160045260248cfd5b634e487b7160e01b8a52601160045260248afd5b8751636edaef2f60e11b8152600490fd5b60405163a41e3d3f60e01b8152600490fd5b9190820180921162000a1c57565b8115620014df570490565b634e487b7160e01b600052601260045260246000fd5b80548210156200150e5760005260206000200190600090565b634e487b7160e01b600052603260045260246000fd5b6000818152600b602052604090205491906001600160601b03821162001573576000908152600b602052604090206001600160a01b039290921660a09190911b6001600160a01b031916019055565b604051633f2cd0e360e21b8152600490fdfe6080604081815260049081361015610022575b505050361561002057600080fd5b005b600092833560e01c90816301ffc9a7146118055750806302519da31461125257806306fdde031461172a578063081812fc146116f7578063095ea7b3146116ce57806309674eb01461169e57806309f0ef65146116785780630cc835a3146116185780631694505e146115d457806318160ddd146111a157806323b872dd146115b857806327c8f8351461159b5780632b14ca561461157c578063313ce5671461153e5780633644e5151461151a57806342842e0e146114cb57806347062402146114ac57806349bd5a5e146114835780634d9660721461145a5780634f02c4201461095d5780634fbee1931461141c57806362f1e66c146113255780636352211e146112a95780636e8f624b1461128a57806370a0823114611252578063715018a6146111f85780637ecebe00146111c057806389fb4c66146111a15780638a696e501461109d5780638b4cee081461103d5780638da5cb5b1461101557806390d49b9d14610eac57806395d89b4114610dd1578063976a843514610d965780639a7a23d614610c60578063a22cb46514610bc5578063a9059cbb14610b74578063b1ab931714610af2578063b3f9ea3414610aba578063b62496f514610a7c578063b88d4fde146109f7578063c02466681461097c578063c5ab3ba61461095d578063c87b56dd1461077f578063d505accf14610551578063d96ca0b91461052c578063dd62ed3e146104e3578063dd637699146104cb578063dfabc033146104a0578063e985e9c514610452578063f25f4b5614610425578063f2fde38b1461039e5763f780bc1a03610012573461039a578060031936011261039a5781356024906024359161029483612070565b946102a1855196876118c4565b8386526102ad84612070565b60209290601f1901368885013783976102d76001546001600160801b03908181169060801c031690565b956001600160801b039060019788918360015416925b610303575b8a51806102ff8e82611988565b0390f35b610311818a9d9c9b9d612088565b8d101561039157818d10156103815761034384808f168501166001600160801b03166000526002602052604060002090565b549c61034f8a82611e0e565b8c5181101561036f57908d9e8a8e9f9d9e8e9460051b010152019c6102ed565b634e487b7160e01b8752603289528787fd5b895163580821e760e01b81528790fd5b899a9b506102f2565b8280fd5b50903461039a57602036600319011261039a576103b9611859565b906103c2612095565b6001600160a01b0391821692831561040f57505082546001600160a01b0319811683178455167f8be0079c531659141344cd1fd0a4f28419497f9722a3daafe3b4186f6b6457e08380a380f35b51631e4fbdf760e01b8152908101849052602490fd5b83823461044e578160031936011261044e5760105490516001600160a01b039091168152602090f35b5080fd5b83823461044e578060031936011261044e5760ff81602093610472611859565b61047a611874565b6001600160a01b039182168352600a875283832091168252855220549151911615158152f35b83823461044e573660031901126104c8576104c56104bc611859565b60243590611fce565b80f35b80fd5b83346104c8576104c56104dd36611944565b91611eca565b83823461044e578060031936011261044e5780602092610501611859565b610509611874565b6001600160a01b0391821683526008865283832091168252845220549051908152f35b83823461044e5760209061054861054236611944565b91611e31565b90519015158152f35b5082903461044e5760e036600319011261044e5761056d611859565b90610576611874565b604435606435926084359260ff841680940361077b5742851061076b57600160ff1b83118061075f575b61074f576001600160a01b0390811695861561073f57816105bf611ac3565b911695868952602095600e8752848a2092835493600185019055855192888401947f6e71edae12b1b97f4d1f60370fef10105fa2faae0126114a169c64845d6126c986528a888601528b606086015288608086015260a085015260c084015260c0835260e0830167ffffffffffffffff948482108683111761072b578188528451902061010085019261190160f01b8452610102860152610122850152604281526101608401948186109086111761071857848752519020835261018082015260a4356101a082015260c4356101c0909101528780528490889060809060015afa1561070e5786511680158015610704575b6106f4578652600883528086208587528352808620829055519081527f8c5be1e5ebec7d5bd14f71427d1e84f3dd0314c0f7b2291e5b200ac8c7c3b9259190a380f35b8151632057875960e21b81528890fd5b50848114156106b1565b81513d88823e3d90fd5b634e487b7160e01b8c5260418d5260248cfd5b50634e487b7160e01b8c5260418d5260248cfd5b8251635461585f60e01b81528990fd5b81516303e7c1bd60e31b81528890fd5b506000198314156105a0565b81516305787bdf60e01b81528890fd5b8680fd5b5082903461044e57602091826003193601126104c85783358082957a184f03e93ff9f4daa797ed6e38ed64bf6a1f0100000000000000008083101561094e575b506d04ee2d6d415b85acef810000000080841015610940575b50662386f26fc1000080841015610931575b506305f5e10080841015610922575b5061271080841015610914575b50506064821015610904575b600a809210156108fa575b60019081602160018901986108496108348b6119c4565b9a6108418a519c8d6118c4565b808c526119c4565b8a8a019790601f190136893750890101905b6108c4575b6108a5876102ff886108b5603a8d8b84519788927f68747470733a2f2f6578616d706c652e636f6d2f746f6b656e2f00000000000089850152518092858501906118fc565b810103601a8101875201856118c4565b5192828493845283019061191f565b600019019083906f181899199a1a9b1b9c1cb0b131b232b360811b8282061a8353049182156108f55791908261085b565b610860565b946001019461081d565b9490606460029104910194610812565b960195909104908680610806565b600891979304920195876107f9565b601091979304920195876107ea565b8691979304920195876107d8565b949650869482049250876107bf565b83823461044e578160031936011261044e576020906006549051908152f35b83823461044e578060031936011261044e577f9d8f7706ea1113d1a167b526eca956215946dd36cc7df39eb16180222d8b5df760206109b9611859565b6109c1611979565b906109ca612095565b6001600160a01b031680865260138352848620805460ff191660ff8415151617905593519015158152a280f35b503461039a57608036600319011261039a57610a11611859565b610a19611874565b846064359467ffffffffffffffff861161044e573660238701121561044e5785013594610a51610a48876119c4565b955195866118c4565b858552366024878301011161044e57856104c596602460209301838801378501015260443591611cdb565b83823461044e57602036600319011261044e5760209160ff9082906001600160a01b03610aa7611859565b1681526014855220541690519015158152f35b83823461044e57602036600319011261044e5760209181906001600160a01b03610ae2611859565b168152600c845220549051908152f35b83823461044e57602090602060031936011261039a576001600160a01b03610b18611859565b168352600c60205280832092815180936020865492838152019583526020832092905b828210610b5d576102ff8686610b53828b03836118c4565b5191829182611988565b835487529586019560019384019390910190610b3b565b5082346104c857816003193601126104c85750610b8f611859565b916001600160a01b03831615610bb75750610bb060209260243590336122eb565b5160018152f35b9051634e46966960e11b8152fd5b503461039a578060031936011261039a57610bde611859565b90610be7611979565b6001600160a01b03909216928315610c525750338452600a602052808420838552602052610c23828286209060ff801983541691151516179055565b5190151581527f17307eab39ab6107e8899845ad3d59bd9653f200f220920489ca2b5937696c3160203392a380f35b905163ccea9e6f60e01b8152fd5b50903461039a578160031936011261039a57610c7a611859565b91610c83611979565b91610c8c612095565b600f546001600160a01b0394851694168414610d2e578315610cec575082845260146020528320805460ff191660ff831515161790551515907fffa9187bf1f18bf477bd0ea1bcbb64e93b6a98132473929edfce215cd9b16fab8380a380f35b6020606492519162461bcd60e51b8352820152601f60248201527f43616e6e6f7420736574207a65726f20616464726573732061732070616972006044820152fd5b6020608492519162461bcd60e51b8352820152603960248201527f54686520706169722063616e6e6f742062652072656d6f7665642066726f6d2060448201527f6175746f6d617465644d61726b65744d616b65725061697273000000000000006064820152fd5b83823461044e578160031936011261044e57602090517f00000000000000000000000000000000000000000000000000000000000000008152f35b503461039a578260031936011261039a578051838194908454610df38161188a565b9182855260209660019288600182169182600014610e82575050600114610e27575b85886102ff896108b5848a03856118c4565b815286935091907f8a35acfbc15ff81a39ae7d344fd709f28e8600b4aa8c65c6b64bfe7fe36bd19b5b828410610e6a57505050820101816108b56102ff38610e15565b8054848a018601528895508794909301928101610e50565b60ff19168882015294151560051b870190940194508593506108b592506102ff9150389050610e15565b50903461039a57602036600319011261039a57610ec7611859565b610ecf612095565b6001600160a01b03818116939092908415610fc45760105493841692838614610f72573b610f2f575050827f362a006325d32978b283e449d254cfcf93e2cccc321603ead9a74238d8dbf36e8580a36001600160a01b0319161760105580f35b906020606492519162461bcd60e51b8352820152601f60248201527f4665652077616c6c65742063616e6e6f74206265206120636f6e7472616374006044820152fd5b815162461bcd60e51b8152602081850152602660248201527f4665652077616c6c657420616c72656164792073657420746f2074686973206160448201526564647265737360d01b6064820152608490fd5b906020608492519162461bcd60e51b8352820152602560248201527f43616e6e6f7420736574207a65726f2061646472657373206173206665652077604482015264185b1b195d60da1b6064820152fd5b83823461044e578160031936011261044e57905490516001600160a01b039091168152602090f35b503461039a57602036600319011261039a577f5bafec153d96f8ef37761b64348732b41a6b477401d244a5070f9f82d689adce913561107a612095565b611087600a821115611a45565b601254908060125582519182526020820152a180f35b5091903461044e57602036600319011261044e57803590811515820361039a5733156111935750801561111557338252600c6020528282205492825b84811061110357506104c59293505b338452600d60205283209060ff801983541691151516179055565b60019061110f33612d43565b016110d9565b919091338352600760205261114e828420547f0000000000000000000000000000000000000000000000000000000000000000906122cb565b91338452600c60205280842054845b6111678286611e0e565b811015611187579060016111679261117e33612c05565b0190915061115d565b50506104c592506110e8565b835163a41e3d3f60e01b8152fd5b83823461044e578160031936011261044e576020906005549051908152f35b83823461044e57602036600319011261044e5760209181906001600160a01b036111e8611859565b168152600e845220549051908152f35b83346104c857806003193601126104c857611211612095565b80546001600160a01b03198116825581906001600160a01b03167f8be0079c531659141344cd1fd0a4f28419497f9722a3daafe3b4186f6b6457e08280a380f35b83823461044e57602036600319011261044e5760209181906001600160a01b0361127a611859565b1681526007845220549051908152f35b83823461044e578160031936011261044e5751600160ff1b8152602090f35b5082903461044e57602036600319011261044e578235808352600b60205291819020546001600160a01b031691600160ff1b81119081611318575b50156113095781156112fa576020925051908152f35b5163c5723b5160e01b81529050fd5b516307ed98ed60e31b81529050fd5b60001914159050846112e4565b503461039a57602036600319011261039a57601054823592906001600160a01b031633036113da57308452600760205281842054831115806113d1575b1561139e5750816020916113967f2aeddf43c2ba32e56c27403db0fffb22b067d50b0848a40c61a5d787b1d79c96946120c1565b51908152a180f35b6020606492519162461bcd60e51b8352820152600e60248201526d125b9d985b1a5908185b5bdd5b9d60921b6044820152fd5b50821515611362565b6020606492519162461bcd60e51b8352820152601860248201527f4f6e6c79206665652077616c6c65742063616e2063616c6c00000000000000006044820152fd5b83823461044e57602036600319011261044e5760209160ff9082906001600160a01b03611447611859565b1681526013855220541690519015158152f35b83823461044e578060031936011261044e5760209061054861147a611859565b60243590611c6c565b83823461044e578160031936011261044e57600f5490516001600160a01b039091168152602090f35b83823461044e578160031936011261044e576020906011549051908152f35b5082903461044e576114dc36611944565b91835193602085019085821067ffffffffffffffff831117611507576104c596975052858452611cdb565b634e487b7160e01b875260418852602487fd5b83823461044e578160031936011261044e57602090611537611ac3565b9051908152f35b83823461044e578160031936011261044e576020905160ff7f0000000000000000000000000000000000000000000000000000000000000000168152f35b83823461044e578160031936011261044e576020906012549051908152f35b83823461044e578160031936011261044e576020905161dead8152f35b83823461044e576020906105486115ce36611944565b91611a91565b83823461044e578160031936011261044e57517f00000000000000000000000000000000000000000000000000000000000000006001600160a01b03168152602090f35b503461039a57602036600319011261039a577f28e297c7c282931a994191b735b01eaf17558295f761512a7047f4e1b8dc3b0b9135611655612095565b611662600a821115611a45565b601154908060115582519182526020820152a180f35b83823461044e57602036600319011261044e57602090610548611699611859565b611a19565b83823461044e578160031936011261044e576020906115376001546001600160801b03908181169060801c031690565b83823461044e578060031936011261044e576020906105486116ee611859565b602435906119e0565b50903461039a57602036600319011261039a5735825260096020908152918190205490516001600160a01b039091168152f35b5082346104c857806003193601126104c857815191828260035461174d8161188a565b90818452602095600191876001821691826000146117de575050600114611782575b5050506102ff92916108b59103856118c4565b9190869350600383527fc2575a0e9e593c00f959f8c92f12db2869c3395a3b0502d05e2516446f71f85b5b8284106117c657505050820101816108b56102ff61176f565b8054848a0186015288955087949093019281016117ad565b60ff19168782015293151560051b860190930193508492506108b591506102ff905061176f565b8490843461039a57602036600319011261039a573563ffffffff60e01b811680910361039a576020925063caf91ff560e01b8114908115611848575b5015158152f35b6301ffc9a760e01b14905083611841565b600435906001600160a01b038216820361186f57565b600080fd5b602435906001600160a01b038216820361186f57565b90600182811c921680156118ba575b60208310146118a457565b634e487b7160e01b600052602260045260246000fd5b91607f1691611899565b90601f8019910116810190811067ffffffffffffffff8211176118e657604052565b634e487b7160e01b600052604160045260246000fd5b60005b83811061190f5750506000910152565b81810151838201526020016118ff565b90602091611938815180928185528580860191016118fc565b601f01601f1916010190565b606090600319011261186f576001600160a01b0390600435828116810361186f5791602435908116810361186f579060443590565b60243590811515820361186f57565b602090602060408183019282815285518094520193019160005b8281106119b0575050505090565b8351855293810193928101926001016119a2565b67ffffffffffffffff81116118e657601f01601f191660200190565b90600160ff1b811180611a0d575b15611a01576119fc91611fce565b600190565b611a0a91611c6c565b90565b506000198114156119ee565b6001600160a01b03168015908115611a2f575090565b9050600052600d60205260ff6040600020541690565b15611a4c57565b60405162461bcd60e51b815260206004820152601d60248201527f4d757374206b656570206665657320617420313025206f72206c6573730000006044820152606490fd5b9190600160ff1b821180611ab7575b15611aae576119fc92611eca565b611a0a92611e31565b50600019821415611aa0565b6000467f000000000000000000000000000000000000000000000000000000000000000003611b1157507f000000000000000000000000000000000000000000000000000000000000000090565b6040516003548291611b228261188a565b808252816020948582019460019087600182169182600014611c4e575050600114611bf4575b50611b55925003826118c4565b51902091604051918201927f8b73c3c69bb8fe3d512ecc4cf759cc79239f7b179b0ffacaa9a75d522b39400f845260408301527fc89efdaa54c0f20c7adf612882df0950f5a951637e0307cdcb4c672f298b8bc660608301524660808301523060a083015260a0825260c082019082821067ffffffffffffffff831117611be0575060405251902090565b634e487b7160e01b81526041600452602490fd5b6003885286915087907fc2575a0e9e593c00f959f8c92f12db2869c3395a3b0502d05e2516446f71f85b5b858310611c36575050611b55935082010138611b48565b80548388018501528694508893909201918101611c1f565b60ff19168852611b5595151560051b8501019250389150611b489050565b6001600160a01b0316908115611cc957336000526008602052604060002082600052602052806040600020556040519081527f8c5be1e5ebec7d5bd14f71427d1e84f3dd0314c0f7b2291e5b200ac8c7c3b92560203392a3600190565b604051635461585f60e01b8152600490fd5b919092600160ff1b821180611e02575b15611df057611cfb828585611a91565b50833b15159384611d23575b50505050611d1157565b604051633da6393160e01b8152600490fd5b611d6d9394509060209160018060a01b039360405180968194829388630a85bd0160e11b9b8c8652336004870152166024850152604484015260806064840152608483019061191f565b03916000958691165af1918215611de3578192611d9c575b50506001600160e01b031916141538808080611d07565b9091506020813d602011611ddb575b81611db8602093836118c4565b8101031261044e5751906001600160e01b0319821682036104c857503880611d85565b3d9150611dab565b50604051903d90823e3d90fd5b6040516307ed98ed60e31b8152600490fd5b50600019821415611ceb565b91908203918211611e1b57565b634e487b7160e01b600052601160045260246000fd5b6001600160a01b03808216939291908415611eb857821615611ea6576119fc9383600082815260086020526040812033825260205260408120546000198103611e7e575b505050506122eb565b604092611e8a91611e0e565b9281526008602052818120338252602052205538838180611e75565b604051634e46966960e11b8152600490fd5b604051636edaef2f60e11b8152600490fd5b6001600160a01b03939291908481168015611eb85785831615611ea657600095848752600b6020526040968188822054168303611fbe578790833314159384611f9a575b5083611f82575b505050611f7257611f2582611a19565b611f6157611f5f939450611f5a7f000000000000000000000000000000000000000000000000000000000000000083836125b5565b612650565b565b8451635ce7539760e01b8152600490fd5b84516282b42960e81b8152600490fd5b86815260096020522054163314159050388681611f15565b915080935052600a6020528682203383526020528660ff8184205416159238611f0e565b87516282b42960e81b8152600490fd5b6000828152600b60205260408120546001600160a01b0390811691338314158061204f575b61203e577f8c5be1e5ebec7d5bd14f71427d1e84f3dd0314c0f7b2291e5b200ac8c7c3b92591858252600960205260408220941693846001600160601b0360a01b82541617905580a4565b6040516282b42960e81b8152600490fd5b50828152600a6020526040812033825260205260ff60408220541615611ff3565b67ffffffffffffffff81116118e65760051b60200190565b91908201809211611e1b57565b6000546001600160a01b031633036120a957565b60405163118cdaa760e01b8152336004820152602490fd5b60408051909167ffffffffffffffff60608301818111848210176118e65784526002835260209283810190853683378051156122615730825285516315ab88c960e31b81526001600160a01b03927f000000000000000000000000000000000000000000000000000000000000000084169290918781600481875afa9081156122ad57600091612277575b5090805191600192600110156122615785168982015261216c8785611c6c565b50833b1561186f57919093885194859363791ac94760e01b855260a48501908960048701526000602487015260a060448701525180915260c4850193926000905b8b838310612247575050505050509181600081819530606483015242608483015203925af19182612238575b5050612208577ff9e10ddceffcb10b96e8833202366240699b814c91f371ddd9befa3aee9bc60f9251908152a1565b7f4f73e5828387c436ef01a51b03853873e76d7a5551556837d452cbeb6f285cb5929147908351928352820152a1565b81116118e657845238806121d9565b8551821687528997509586019590940193908301906121ad565b634e487b7160e01b600052603260045260246000fd5b8881813d83116122a6575b61228c81836118c4565b8101031261044e57519085821682036104c857503861214c565b503d612282565b89513d6000823e3d90fd5b81810292918115918404141715611e1b57565b81156122d5570490565b634e487b7160e01b600052601260045260246000fd5b6001600160a01b03808216939291908415612562578216938415612511576123699460115415801590612506575b806124f6575b806124dd575b806124c4575b806124ab575b80612494575b61246a575b60009060ff600f5460a01c161580612453575b8061243c575b6123c5575b50908161236c575b505061292a565b50565b909360406123a7867f108516ddcf5ba43cea6bb2cd5ff6d59ac196c1c86ccb9178332b9dd72d1ca561936123a182308961292a565b50611e0e565b956123b28188612088565b9082519182526020820152a23880612362565b8152601460205260ff60408220541680612431575b156123f8575060646123ee601254866122b8565b04905b903861235a565b9080825260ff60408320541680612426575b156123f1579050606461241f601154866122b8565b04906123f1565b50601154151561240a565b5060125415156123da565b50808252601360205260ff60408320541615612355565b50828252601360205260ff6040832054161561234f565b600f805460ff60a01b19908116600160a01b17909155612488612852565b600f5416600f5561233c565b503060005260076020526040600020541515612337565b5080600052601360205260ff6040600020541615612331565b5081600052601360205260ff604060002054161561232b565b5081600052601460205260ff6040600020541615612325565b5060ff600f5460a01c161561231f565b506012541515612319565b60405162461bcd60e51b815260206004820152602360248201527f45524332303a207472616e7366657220746f20746865207a65726f206164647260448201526265737360e81b6064820152608490fd5b60405162461bcd60e51b815260206004820152602560248201527f45524332303a207472616e736665722066726f6d20746865207a65726f206164604482015264647265737360d81b6064820152608490fd5b6001600160a01b03908116917fddf252ad1be2c89b69c2b068fc378daa952ba7f163c4a11628f55a4df523b3ef9160209184612619576125f786600554612088565b6005555b169384600052600782526040600020818154019055604051908152a3565b84600052600783526040600020612631878254611e0e565b90556125fb565b80548210156122615760005260206000200190600090565b6001600160a01b039081169182612760575b1690811561274b576000838152600b60205260408120836001600160601b0360a01b825416019055828152600c6020526040812080549068010000000000000000821015612737576126be82879260016126d795018155612638565b90919082549060031b91821b91600019901b1916179055565b828152600c602052604081205460001981019190821161272357506126fc9084612baa565b7fddf252ad1be2c89b69c2b068fc378daa952ba7f163c4a11628f55a4df523b3ef600080a4565b634e487b7160e01b81526011600452602490fd5b634e487b7160e01b83526041600452602483fd5b82600052600b602052600060408120556126fc565b60008481526009602052604081206001600160601b0360a01b8154169055838152600c6020526040812080546000199182820191821161283e57906127a491612638565b90549060031b1c868103612805575b50848252600c602052604082209182549081156127f1575001906127eb6127da8383612638565b8154906000199060031b1b19169055565b55612662565b634e487b7160e01b81526031600452602490fd5b61283890878452600b602052604084205460a01c90878552600c602052612833816126be8460408920612638565b612baa565b386127b3565b634e487b7160e01b84526011600452602484fd5b60003081526007602052604081205490811561292657612871826120c1565b4790808080808560018060a01b03601054165af1903d15612920573d90612897826119c4565b916128a560405193846118c4565b825260203d92013e5b156128e5577fd7f052835057cec2a1decd4aca816a27eeacf3dea0afb8d6d017f545e4c9ebb39160409182519182526020820152a1565b60405162461bcd60e51b8152602060048201526013602482015272115512081d1c985b9cd9995c8819985a5b1959606a1b6044820152606490fd5b506128ae565b5050565b919060018060a01b039182841660009481865260209060078252604092838820549686169687895284892054956129628189866125b5565b61296b84611a19565b61297489611a19565b908080612ba3575b15612993575b505050505050505050505050600190565b15612a165750505050509060076129e0926129e695968852528520546129da7f000000000000000000000000000000000000000000000000000000000000000080926122cb565b926122cb565b90611e0e565b915b828110612a04575050505b388080808080808080808080612982565b600190612a1083612c05565b016129e8565b9890919692979398600014612a8f5750505050916129e0916007612a6c9594612a607f000000000000000000000000000000000000000000000000000000000000000080956122cb565b958952528620546122cb565b915b828110612a7d575050506129f3565b600190612a8983612d43565b01612a6e565b9196979095612ac3999493997f000000000000000000000000000000000000000000000000000000000000000080986122cb565b988991865b838110612b41575094889692946129e098948896612b06600795612af3612b179f9e6129da9c6122cb565b9088528686526129e08a8a8a20546122cb565b11612b32575b5083525220546122cb565b11612b23575b506129f3565b612b2c90612c05565b38612b1d565b612b3b90612d43565b38612b0c565b90918093508752600c80875288882054906000198201918211612b8f578d612b7760019493612b8593888d528b528c8c20612638565b90549060031b1c9087612650565b01908a9291612ac8565b634e487b7160e01b89526011600452602489fd5b508161297c565b9081600052600b602052604060002054916001600160601b038211612bf357600052600b6020526001600160601b0360a01b9060a01b169060018060a01b031601604060002055565b604051633f2cd0e360e21b8152600490fd5b6001600160a01b0381811615611ea6576001546001600160801b0390600090608081901c90831614612ce55750600154818160801c91168114612cd35760001901818116916000612c87612c6c856001600160801b03166000526002602052604060002090565b54946001600160801b03166000526002602052604060002090565b55600154916001600160801b03199060801b16911617600155905b81600052600b602052604060002054169182612cc157611f5f92612650565b60405163119b4fd360e11b8152600490fd5b6040516375e52f4f60e01b8152600490fd5b9050600654600019808214612d2f57600182018060065514612d1d576001600160ff1b010190600160ff1b8210612723575090612ca2565b60405163303b682f60e01b8152600490fd5b634e487b7160e01b83526011600452602483fd5b6001600160a01b03168015611eb8576000818152602090600c82526040908181209384546000199586820191821161283e5790612d7f91612638565b90549060031b1c93848352600981528383206001600160601b0360a01b8154169055818352600c8152838320805490878201918211612ecc5790612dc291612638565b90549060031b1c858103612e9c575b50818352600c815283832080548015612e885791600b9188889695940190612dfc6127da8383612638565b558484525281848120557fddf252ad1be2c89b69c2b068fc378daa952ba7f163c4a11628f55a4df523b3ef8280a4600154926001600160801b039081851601169260801c8314612e785750612e64826001600160801b03166000526002602052604060002090565b556001600160801b03196001541617600155565b51638acb5f2760e01b8152600490fd5b634e487b7160e01b85526031600452602485fd5b612ec690868552600b83528585205460a01c90848652600c8452612833816126be848a8a20612638565b38612dd1565b634e487b7160e01b85526011600452602485fdfea2646970667358221220eff4e6402000fc4c447176e48b325e143ab9c9cc6843b0475974f93c0292827964736f6c6343000817003345117a726ea4f344045dc210793664a28d2d320b7e03f6bffdae553d24c3586c9d8f7706ea1113d1a167b526eca956215946dd36cc7df39eb16180222d8b5df7c2575a0e9e593c00f959f8c92f12db2869c3395a3b0502d05e2516446f71f85bddf252ad1be2c89b69c2b068fc378daa952ba7f163c4a11628f55a4df523b3ef",
  "linkReferences": {},
  "deployedLinkReferences": {}
}